{
  "contracts/Lottery.sol": {
    "Lottery": {
      "abi": [
        {
          "inputs": [],
          "stateMutability": "nonpayable",
          "type": "constructor"
        },
        {
          "anonymous": false,
          "inputs": [
            {
              "indexed": false,
              "internalType": "address",
              "name": "player",
              "type": "address"
            },
            {
              "indexed": false,
              "internalType": "string",
              "name": "number",
              "type": "string"
            },
            {
              "indexed": false,
              "internalType": "uint256",
              "name": "amounts",
              "type": "uint256"
            }
          ],
          "name": "Buy",
          "type": "event"
        },
        {
          "anonymous": false,
          "inputs": [
            {
              "indexed": false,
              "internalType": "uint256",
              "name": "round",
              "type": "uint256"
            },
            {
              "indexed": true,
              "internalType": "string",
              "name": "number",
              "type": "string"
            },
            {
              "indexed": true,
              "internalType": "address[]",
              "name": "winners",
              "type": "address[]"
            }
          ],
          "name": "DrawPrize",
          "type": "event"
        },
        {
          "anonymous": false,
          "inputs": [
            {
              "indexed": false,
              "internalType": "uint256",
              "name": "time",
              "type": "uint256"
            },
            {
              "indexed": false,
              "internalType": "string",
              "name": "unit",
              "type": "string"
            }
          ],
          "name": "Start",
          "type": "event"
        },
        {
          "inputs": [],
          "name": "VRF",
          "outputs": [
            {
              "internalType": "address",
              "name": "",
              "type": "address"
            }
          ],
          "stateMutability": "view",
          "type": "function"
        },
        {
          "inputs": [],
          "name": "admin",
          "outputs": [
            {
              "internalType": "address",
              "name": "",
              "type": "address"
            }
          ],
          "stateMutability": "view",
          "type": "function"
        },
        {
          "inputs": [
            {
              "internalType": "string",
              "name": "number",
              "type": "string"
            },
            {
              "internalType": "uint256",
              "name": "amounts",
              "type": "uint256"
            }
          ],
          "name": "buy",
          "outputs": [],
          "stateMutability": "nonpayable",
          "type": "function"
        },
        {
          "inputs": [
            {
              "internalType": "address",
              "name": "_newAdmin",
              "type": "address"
            }
          ],
          "name": "changeAdmin",
          "outputs": [],
          "stateMutability": "nonpayable",
          "type": "function"
        },
        {
          "inputs": [],
          "name": "closeDraw",
          "outputs": [],
          "stateMutability": "nonpayable",
          "type": "function"
        },
        {
          "inputs": [],
          "name": "drawPrize",
          "outputs": [
            {
              "internalType": "bool",
              "name": "",
              "type": "bool"
            }
          ],
          "stateMutability": "nonpayable",
          "type": "function"
        },
        {
          "inputs": [
            {
              "internalType": "uint64",
              "name": "subscriptionID",
              "type": "uint64"
            }
          ],
          "name": "instantiateVRF",
          "outputs": [],
          "stateMutability": "nonpayable",
          "type": "function"
        },
        {
          "inputs": [],
          "name": "queryActivityInfo",
          "outputs": [
            {
              "components": [
                {
                  "internalType": "uint256",
                  "name": "round",
                  "type": "uint256"
                },
                {
                  "internalType": "uint256",
                  "name": "poolBalance",
                  "type": "uint256"
                },
                {
                  "internalType": "uint256",
                  "name": "totalAmounts",
                  "type": "uint256"
                },
                {
                  "internalType": "uint256",
                  "name": "time",
                  "type": "uint256"
                },
                {
                  "internalType": "string",
                  "name": "number",
                  "type": "string"
                },
                {
                  "internalType": "enum Lottery.Lottery_State",
                  "name": "state",
                  "type": "uint8"
                },
                {
                  "internalType": "bool",
                  "name": "isAlreadyDistributed",
                  "type": "bool"
                },
                {
                  "components": [
                    {
                      "internalType": "address",
                      "name": "player",
                      "type": "address"
                    },
                    {
                      "internalType": "string",
                      "name": "number",
                      "type": "string"
                    },
                    {
                      "internalType": "uint256",
                      "name": "amounts",
                      "type": "uint256"
                    }
                  ],
                  "internalType": "struct Lottery.Order[]",
                  "name": "participantRecord",
                  "type": "tuple[]"
                }
              ],
              "internalType": "struct Lottery.Activity",
              "name": "",
              "type": "tuple"
            }
          ],
          "stateMutability": "view",
          "type": "function"
        },
        {
          "inputs": [
            {
              "internalType": "uint256",
              "name": "round",
              "type": "uint256"
            }
          ],
          "name": "queryPrizeHistory",
          "outputs": [
            {
              "internalType": "string",
              "name": "number",
              "type": "string"
            },
            {
              "internalType": "address[]",
              "name": "winners",
              "type": "address[]"
            }
          ],
          "stateMutability": "view",
          "type": "function"
        },
        {
          "inputs": [
            {
              "internalType": "uint256",
              "name": "time",
              "type": "uint256"
            },
            {
              "internalType": "string",
              "name": "unit",
              "type": "string"
            }
          ],
          "name": "startActivity",
          "outputs": [],
          "stateMutability": "nonpayable",
          "type": "function"
        }
      ],
      "evm": {
        "bytecode": {
          "linkReferences": {},
          "object": "608060405234801561001057600080fd5b50600180546001600160a01b031916331790556127f2806100326000396000f3fe60806040523480156200001157600080fd5b5060043610620000ab5760003560e01c8063a126285b116200006e578063a126285b1462000120578063c00802761462000152578063c5b6ca5d1462000169578063f7efdc0a1462000190578063f851a44014620001a957600080fd5b80630ca5c50414620000b0578063501335f714620000c95780636408650014620000e85780638f28397014620000ff578063a0eb55701462000116575b600080fd5b620000c7620000c136600462001cae565b620001bd565b005b620000d3620006f7565b60405190151581526020015b60405180910390f35b620000c7620000f936600462001d2b565b62000e63565b620000c76200011036600462001c58565b6200111c565b620000c76200116b565b600054620001399061010090046001600160a01b031681565b6040516001600160a01b039091168152602001620000df565b620000c76200016336600462001d76565b620011a4565b620001806200017a36600462001cf7565b6200123b565b604051620000df92919062001fcb565b6200019a62001372565b604051620000df91906200204d565b60015462000139906001600160a01b031681565b6001546001600160a01b0316331415620002155760405162461bcd60e51b815260206004820152601460248201527318591b5a5b881a5cc81b9bdd08185b1b1bddd95960621b60448201526064015b60405180910390fd5b60005460ff16156200026a5760405162461bcd60e51b815260206004820152601f60248201527f5265656e7472616e637947756172643a207265656e7472616e742063616c6c0060448201526064016200020c565b6000805460ff19166001179055600854421115620002bd5760405162461bcd60e51b815260206004820152600f60248201526e657863656564206275792074696d6560881b60448201526064016200020c565b60098054620002cc90620021ba565b159050620003295760405162461bcd60e51b8152602060048201526024808201527f63757272656e74206163746976697479206e756d626572206d757374206265206044820152631b9d5b1b60e21b60648201526084016200020c565b6001600a5460ff16600281111562000345576200034562002258565b146200039e5760405162461bcd60e51b815260206004820152602160248201527f63757272656e742061637469766974792073746174757320657863657074696f6044820152603760f91b60648201526084016200020c565b60008111620003e55760405162461bcd60e51b8152602060048201526012602482015271616d6f756e7473206174206c65617374203160701b60448201526064016200020c565b6000620003f48260056200214b565b6200040890670de0b6b3a76400006200214b565b6040516370a0823160e01b81523360048201529091508190735ed8bd53b0c3fa3deabd345430b1a3a6a4e8bd7c906370a082319060240160206040518083038186803b1580156200045857600080fd5b505afa1580156200046d573d6000803e3d6000fd5b505050506040513d601f19601f8201168201806040525081019062000493919062001d11565b1015620004da5760405162461bcd60e51b8152602060048201526014602482015273496e73756666696369656e742062616c616e636560601b60448201526064016200020c565b6040516323b872dd60e01b815233600482015230602482015260448101829052600090735ed8bd53b0c3fa3deabd345430b1a3a6a4e8bd7c906323b872dd90606401602060405180830381600087803b1580156200053757600080fd5b505af11580156200054c573d6000803e3d6000fd5b505050506040513d601f19601f8201168201806040525081019062000572919062001c8a565b905080620005b55760405162461bcd60e51b815260206004820152600f60248201526e1d1c985b9cd9995c8819985a5b1959608a1b60448201526064016200020c565b604080516060810182523381526020808201878152928201869052600b805460018101825560009190915282517f0175b7a638427703f0dbe7bb9bbf987a2551717b34e79f33b5b1008d1fa01db9600390920291820180546001600160a01b0319166001600160a01b039092169190911781559351805193949362000664937f0175b7a638427703f0dbe7bb9bbf987a2551717b34e79f33b5b1008d1fa01dba909301929190910190620019a0565b50604082015181600201555050816005600101600082825462000688919062002119565b909155505060078054849190600090620006a490849062002119565b90915550506040517f1160f7e42acc25ce40a0499151736a0092c23685ef042576f568bd2435a11a3690620006df9033908790879062001f95565b60405180910390a150506000805460ff191690555050565b6001546000906001600160a01b03163314620007275760405162461bcd60e51b81526004016200020c9062002022565b60005460ff16156200077c5760405162461bcd60e51b815260206004820152601f60248201527f5265656e7472616e637947756172643a207265656e7472616e742063616c6c0060448201526064016200020c565b6000805460ff191660011790556008544211620007ea5760405162461bcd60e51b815260206004820152602560248201527f546865206c6f74746572792074696d6520686173206e6f74206265656e2072656044820152641858da195960da1b60648201526084016200020c565b600a54610100900460ff1615620008445760405162461bcd60e51b815260206004820152601c60248201527f5072697a65732068617665206265656e2064697374726962757465640000000060448201526064016200020c565b6000600a5460ff16600281111562000860576200086062002258565b1415620008b05760405162461bcd60e51b815260206004820152601860248201527f416374697669747920686173206265656e20636c6f736564000000000000000060448201526064016200020c565b600a805460ff191660021790556000620008c9620015b1565b90506000620008d882620016fa565b8051909150620008f0906009906020840190620019a0565b506000805b600b5481101562000a96576000600560060182815481106200091b576200091b6200226e565b6000918252602091829020604080516060810190915260039092020180546001600160a01b0316825260018101805492939192918401916200095d90620021ba565b80601f01602080910402602001604051908101604052809291908181526020018280546200098b90620021ba565b8015620009dc5780601f10620009b057610100808354040283529160200191620009dc565b820191906000526020600020905b815481529060010190602001808311620009be57829003601f168201915b50505050508152602001600282015481525050905062000a0181602001518562001812565b62000a0d575062000a81565b805160028054600195508490811062000a2a5762000a2a6200226e565b9060005260206000200160006101000a8154816001600160a01b0302191690836001600160a01b0316021790555080604001516003838154811062000a735762000a736200226e565b600091825260209091200155505b8062000a8d81620021f7565b915050620008f5565b50801562000e4e5760405180604001604052806005600401805462000abb90620021ba565b80601f016020809104026020016040519081016040528092919081815260200182805462000ae990620021ba565b801562000b3a5780601f1062000b0e5761010080835404028352916020019162000b3a565b820191906000526020600020905b81548152906001019060200180831162000b1c57829003601f168201915b50505050508152602001600280548060200260200160405190810160405280929190818152602001828054801562000b9c57602002820191906000526020600020905b81546001600160a01b0316815260019091019060200180831162000b7d575b505050919092525050600554600090815260046020908152604090912082518051919262000bd092849290910190620019a0565b50602082810151805162000beb926001850192019062001a2f565b505060065490506000606462000c038360506200214b565b62000c0f919062002134565b905060005b60025481101562000dae5760006002828154811062000c375762000c376200226e565b6000918252602082200154600380546001600160a01b039092169350908490811062000c675762000c676200226e565b60009182526020909120015490506001600160a01b0382161580159062000c8d57508015155b1562000d9657600754600090735ed8bd53b0c3fa3deabd345430b1a3a6a4e8bd7c9063a9059cbb90859062000cc3868a6200214b565b62000ccf919062002134565b6040516001600160e01b031960e085901b1681526001600160a01b0390921660048301526024820152604401602060405180830381600087803b15801562000d1657600080fd5b505af115801562000d2b573d6000803e3d6000fd5b505050506040513d601f19601f8201168201806040525081019062000d51919062001c8a565b90508062000d945760405162461bcd60e51b815260206004820152600f60248201526e1d1c985b9cd9995c8819985a5b1959608a1b60448201526064016200020c565b505b5050808062000da590620021f7565b91505062000c14565b50600a805461ffff191661010017905562000dcc6002600062001a87565b62000dda6003600062001a87565b600260405162000deb919062001e58565b6040519081900381209062000e039060099062001ef1565b6040519081900381206005548252907f9399a616079c875385c43f33683a04ac284a7f9bd863d4186762490c94b54af89060200160405180910390a360019550505050505062000e56565b600093505050505b6000805460ff1916905590565b6001546001600160a01b0316331462000e905760405162461bcd60e51b81526004016200020c9062002022565b600854421162000ee35760405162461bcd60e51b815260206004820181905260248201527f63757272656e74206163746976697479206973206e6f74206f7665722079657460448201526064016200020c565b6000600a5460ff16600281111562000eff5762000eff62002258565b1462000f4e5760405162461bcd60e51b815260206004820181905260248201527f63757272656e742061637469766974792069732077726f6e672073746174757360448201526064016200020c565b600062000f7582604051806040016040528060018152602001607360f81b81525062001812565b1562000f8f5762000f87834262002119565b905062001081565b62000fb482604051806040016040528060018152602001606d60f81b81525062001812565b1562000fd35762000fc783603c6200214b565b62000f87904262002119565b62000ff882604051806040016040528060018152602001600d60fb1b81525062001812565b156200100c5762000fc783610e106200214b565b6200103182604051806040016040528060018152602001601960fa1b81525062001812565b15620010465762000fc783620151806200214b565b60405162461bcd60e51b815260206004820152600f60248201526e1ddc9bdb99c81d1a5b59481d5b9a5d608a1b60448201526064016200020c565b600580549060006200109383620021f7565b90915550506008819055600a805460ff19166001179055620010b86009600062001aaa565b620010c6600b600062001ae9565b60006006819055600755600a805461ff00191690556040517fa3c2d6bd29d5c0fe528651349c26d0e9a184198dc7fe7f90e34d2fe3350a9a3f906200110f9085908590620020fe565b60405180910390a1505050565b6001546001600160a01b03163314620011495760405162461bcd60e51b81526004016200020c9062002022565b600180546001600160a01b0319166001600160a01b0392909216919091179055565b6001546001600160a01b03163314620011985760405162461bcd60e51b81526004016200020c9062002022565b600a805460ff19169055565b6001546001600160a01b03163314620011d15760405162461bcd60e51b81526004016200020c9062002022565b600081604051620011e29062001b0c565b67ffffffffffffffff9091168152602001604051809103906000f08015801562001210573d6000803e3d6000fd5b50600080546001600160a01b0390921661010002610100600160a81b03199092169190911790555050565b6060806000600460008581526020019081526020016000206040518060400160405290816000820180546200127090620021ba565b80601f01602080910402602001604051908101604052809291908181526020018280546200129e90620021ba565b8015620012ef5780601f10620012c357610100808354040283529160200191620012ef565b820191906000526020600020905b815481529060010190602001808311620012d157829003601f168201915b50505050508152602001600182018054806020026020016040519081016040528092919081815260200182805480156200135357602002820191906000526020600020905b81546001600160a01b0316815260019091019060200180831162001334575b5050505050815250509050806000015192508060200151915050915091565b6200137c62001b1a565b6040805161010081018252600580548252600654602083015260075492820192909252600854606082015260098054919291608084019190620013bf90620021ba565b80601f0160208091040260200160405190810160405280929190818152602001828054620013ed90620021ba565b80156200143e5780601f1062001412576101008083540402835291602001916200143e565b820191906000526020600020905b8154815290600101906020018083116200142057829003601f168201915b5050509183525050600582015460209091019060ff16600281111562001468576200146862002258565b60028111156200147c576200147c62002258565b81526005820154610100900460ff161515602080830191909152600683018054604080518285028101850182528281529401939260009084015b82821015620015a457600084815260209081902060408051606081019091526003850290910180546001600160a01b0316825260018101805492939192918401916200150290620021ba565b80601f01602080910402602001604051908101604052809291908181526020018280546200153090620021ba565b8015620015815780601f10620015555761010080835404028352916020019162001581565b820191906000526020600020905b8154815290600101906020018083116200156357829003601f168201915b5050505050815260200160028201548152505081526020019060010190620014b6565b5050505081525050905090565b6000805461010090046001600160a01b0316620016115760405162461bcd60e51b815260206004820152601a60248201527f56524620616464726573732063616e6e6f74206265206e756c6c00000000000060448201526064016200020c565b60008060019054906101000a90046001600160a01b03169050806001600160a01b031663e0c862896040518163ffffffff1660e01b8152600401600060405180830381600087803b1580156200166657600080fd5b505af11580156200167b573d6000803e3d6000fd5b50505050806001600160a01b0316634f18bb076040518163ffffffff1660e01b815260040160206040518083038186803b158015620016b957600080fd5b505afa158015620016ce573d6000803e3d6000fd5b505050506040513d601f19601f82011682018060405250810190620016f4919062001d11565b91505090565b60606127108210620017475760405162461bcd60e51b8152602060048201526015602482015274657863656564206d6178696d756d2072616e646f6d60581b60448201526064016200020c565b6103e782111562001763576200175d8262001882565b92915050565b6063821115620017bb57604051806040016040528060018152602001600360fc1b815250620017928362001882565b604051602001620017a592919062001ea0565b6040516020818303038152906040529050919050565b6009821115620017eb5760405180604001604052806002815260200161030360f41b815250620017928362001882565b6040518060400160405280600381526020016203030360ec1b815250620017928362001882565b6000815183511462001827575060006200175d565b816040516020016200183a919062001ed3565b604051602081830303815290604052805190602001208360405160200162001863919062001ed3565b6040516020818303038152906040528051906020012014905092915050565b606081620018a75750506040805180820190915260018152600360fc1b602082015290565b8160005b8115620018d75780620018be81620021f7565b9150620018cf9050600a8362002134565b9150620018ab565b60008167ffffffffffffffff811115620018f557620018f562002284565b6040519080825280601f01601f19166020018201604052801562001920576020820181803683370190505b5090505b84156200199857620019386001836200216d565b915062001947600a8662002215565b6200195490603062002119565b60f81b8183815181106200196c576200196c6200226e565b60200101906001600160f81b031916908160001a90535062001990600a8662002134565b945062001924565b949350505050565b828054620019ae90620021ba565b90600052602060002090601f016020900481019282620019d2576000855562001a1d565b82601f10620019ed57805160ff191683800117855562001a1d565b8280016001018555821562001a1d579182015b8281111562001a1d57825182559160200191906001019062001a00565b5062001a2b92915062001b73565b5090565b82805482825590600052602060002090810192821562001a1d579160200282015b8281111562001a1d57825182546001600160a01b0319166001600160a01b0390911617825560209092019160019091019062001a50565b508054600082559060005260206000209081019062001aa7919062001b73565b50565b50805462001ab890620021ba565b6000825580601f1062001ac9575050565b601f01602090049060005260206000209081019062001aa7919062001b73565b508054600082556003029060005260206000209081019062001aa7919062001b8a565b610522806200229b83390190565b60405180610100016040528060008152602001600081526020016000815260200160008152602001606081526020016000600281111562001b5f5762001b5f62002258565b815260006020820152606060409091015290565b5b8082111562001a2b576000815560010162001b74565b8082111562001a2b5780546001600160a01b0319168155600062001bb2600183018262001aaa565b506000600282015560030162001b8a565b600082601f83011262001bd557600080fd5b813567ffffffffffffffff8082111562001bf35762001bf362002284565b604051601f8301601f19908116603f0116810190828211818310171562001c1e5762001c1e62002284565b8160405283815286602085880101111562001c3857600080fd5b836020870160208301376000602085830101528094505050505092915050565b60006020828403121562001c6b57600080fd5b81356001600160a01b038116811462001c8357600080fd5b9392505050565b60006020828403121562001c9d57600080fd5b8151801515811462001c8357600080fd5b6000806040838503121562001cc257600080fd5b823567ffffffffffffffff81111562001cda57600080fd5b62001ce88582860162001bc3565b95602094909401359450505050565b60006020828403121562001d0a57600080fd5b5035919050565b60006020828403121562001d2457600080fd5b5051919050565b6000806040838503121562001d3f57600080fd5b82359150602083013567ffffffffffffffff81111562001d5e57600080fd5b62001d6c8582860162001bc3565b9150509250929050565b60006020828403121562001d8957600080fd5b813567ffffffffffffffff8116811462001c8357600080fd5b600082825180855260208086019550808260051b84010181860160005b8481101562001e1d57858303601f19018952815180516001600160a01b031684528481015160608686018190529062001dfb8287018262001e2a565b6040938401519690930195909552509884019892509083019060010162001dbf565b5090979650505050505050565b6000815180845262001e4481602086016020860162002187565b601f01601f19169290920160200192915050565b60008183548391508460005260208060002060005b8381101562001e945781546001600160a01b03168552938201936001918201910162001e6d565b50929695505050505050565b6000835162001eb481846020880162002187565b83519083019062001eca81836020880162002187565b01949350505050565b6000825162001ee781846020870162002187565b9190910192915050565b600080835481600182811c91508083168062001f0e57607f831692505b602080841082141562001f2f57634e487b7160e01b86526022600452602486fd5b81801562001f46576001811462001f585762001f87565b60ff1986168952848901965062001f87565b60008a81526020902060005b8681101562001f7f5781548b82015290850190830162001f64565b505084890196505b509498975050505050505050565b6001600160a01b038416815260606020820181905260009062001fbb9083018562001e2a565b9050826040830152949350505050565b60408152600062001fe0604083018562001e2a565b82810360208481019190915284518083528582019282019060005b8181101562001e1d5784516001600160a01b03168352938301939183019160010162001ffb565b6020808252601190820152703cb7ba9030b932903737ba1030b236b4b760791b604082015260600190565b6020815281516020820152602082015160408201526040820151606082015260608201516080820152600060808301516101008060a08501526200209661012085018362001e2a565b915060a085015160038110620020bc57634e487b7160e01b600052602160045260246000fd5b8060c08601525060c0850151620020d760e086018215159052565b5060e0850151848303601f190182860152620020f4838262001da2565b9695505050505050565b82815260406020820152600062001998604083018462001e2a565b600082198211156200212f576200212f6200222c565b500190565b60008262002146576200214662002242565b500490565b60008160001904831182151516156200216857620021686200222c565b500290565b6000828210156200218257620021826200222c565b500390565b60005b83811015620021a45781810151838201526020016200218a565b83811115620021b4576000848401525b50505050565b600181811c90821680620021cf57607f821691505b60208210811415620021f157634e487b7160e01b600052602260045260246000fd5b50919050565b60006000198214156200220e576200220e6200222c565b5060010190565b60008262002227576200222762002242565b500690565b634e487b7160e01b600052601160045260246000fd5b634e487b7160e01b600052601260045260246000fd5b634e487b7160e01b600052602160045260246000fd5b634e487b7160e01b600052603260045260246000fd5b634e487b7160e01b600052604160045260246000fdfe60a0604052600180546001600160a01b031916736168499c0cffcacd319c818142124b7a15e857ab1790557fd89b2bf150e3b9e13446986e571fb9cab24b13cea0a43ea20a6049a85cc807cc6002556003805466010003000186a06001600160501b031990911617905534801561007557600080fd5b50604051610522380380610522833981016040819052610094916100f6565b6001546001600160601b0319606082901b1660805260008054600680546001600160a01b031916331790556001600160401b03909316600160a01b026001600160e01b03199093166001600160a01b0390921691909117919091179055610126565b60006020828403121561010857600080fd5b81516001600160401b038116811461011f57600080fd5b9392505050565b60805160601c6103d861014a6000396000818160d4015261011601526103d86000f3fe608060405234801561001057600080fd5b50600436106100575760003560e01c80631fe543e31461005c5780634f18bb0714610071578063e0c862891461008d578063e397824014610095578063e89e106a146100c0575b600080fd5b61006f61006a366004610283565b6100c9565b005b61007a60045481565b6040519081526020015b60405180910390f35b61006f610155565b6006546100a8906001600160a01b031681565b6040516001600160a01b039091168152602001610084565b61007a60055481565b336001600160a01b037f000000000000000000000000000000000000000000000000000000000000000016146101475760405163073e64fd60e21b81523360048201526001600160a01b037f000000000000000000000000000000000000000000000000000000000000000016602482015260440160405180910390fd5b610151828261023b565b5050565b6006546001600160a01b0316331461016c57600080fd5b6000546002546003546040516305d3b1d360e41b81526004810192909252600160a01b830467ffffffffffffffff166024830152640100000000810461ffff16604483015263ffffffff808216606484015266010000000000009091041660848201526001600160a01b0390911690635d3b1d309060a401602060405180830381600087803b1580156101fe57600080fd5b505af1158015610212573d6000803e3d6000fd5b505050506040513d601f19601f82011682018060405250810190610236919061026a565b600555565b6127108160008151811061025157610251610376565b60200260200101516102639190610354565b6004555050565b60006020828403121561027c57600080fd5b5051919050565b6000806040838503121561029657600080fd5b8235915060208084013567ffffffffffffffff808211156102b657600080fd5b818601915086601f8301126102ca57600080fd5b8135818111156102dc576102dc61038c565b8060051b604051601f19603f830116810181811085821117156103015761030161038c565b604052828152858101935084860182860187018b101561032057600080fd5b600095505b83861015610343578035855260019590950194938601938601610325565b508096505050505050509250929050565b60008261037157634e487b7160e01b600052601260045260246000fd5b500690565b634e487b7160e01b600052603260045260246000fd5b634e487b7160e01b600052604160045260246000fdfea2646970667358221220999645e661184d1bdf3389d92c19cc9783e5c5ae683d0bab635e9f0df1b6faf164736f6c63430008060033a26469706673582212201060892e99681932c5093b9b9d0b62411050ad7b24ddea03a55d853989112ddd64736f6c63430008060033",
          "opcodes": "PUSH1 0x80 PUSH1 0x40 MSTORE CALLVALUE DUP1 ISZERO PUSH2 0x10 JUMPI PUSH1 0x0 DUP1 REVERT JUMPDEST POP PUSH1 0x1 DUP1 SLOAD PUSH1 0x1 PUSH1 0x1 PUSH1 0xA0 SHL SUB NOT AND CALLER OR SWAP1 SSTORE PUSH2 0x27F2 DUP1 PUSH2 0x32 PUSH1 0x0 CODECOPY PUSH1 0x0 RETURN INVALID PUSH1 0x80 PUSH1 0x40 MSTORE CALLVALUE DUP1 ISZERO PUSH3 0x11 JUMPI PUSH1 0x0 DUP1 REVERT JUMPDEST POP PUSH1 0x4 CALLDATASIZE LT PUSH3 0xAB JUMPI PUSH1 0x0 CALLDATALOAD PUSH1 0xE0 SHR DUP1 PUSH4 0xA126285B GT PUSH3 0x6E JUMPI DUP1 PUSH4 0xA126285B EQ PUSH3 0x120 JUMPI DUP1 PUSH4 0xC0080276 EQ PUSH3 0x152 JUMPI DUP1 PUSH4 0xC5B6CA5D EQ PUSH3 0x169 JUMPI DUP1 PUSH4 0xF7EFDC0A EQ PUSH3 0x190 JUMPI DUP1 PUSH4 0xF851A440 EQ PUSH3 0x1A9 JUMPI PUSH1 0x0 DUP1 REVERT JUMPDEST DUP1 PUSH4 0xCA5C504 EQ PUSH3 0xB0 JUMPI DUP1 PUSH4 0x501335F7 EQ PUSH3 0xC9 JUMPI DUP1 PUSH4 0x64086500 EQ PUSH3 0xE8 JUMPI DUP1 PUSH4 0x8F283970 EQ PUSH3 0xFF JUMPI DUP1 PUSH4 0xA0EB5570 EQ PUSH3 0x116 JUMPI JUMPDEST PUSH1 0x0 DUP1 REVERT JUMPDEST PUSH3 0xC7 PUSH3 0xC1 CALLDATASIZE PUSH1 0x4 PUSH3 0x1CAE JUMP JUMPDEST PUSH3 0x1BD JUMP JUMPDEST STOP JUMPDEST PUSH3 0xD3 PUSH3 0x6F7 JUMP JUMPDEST PUSH1 0x40 MLOAD SWAP1 ISZERO ISZERO DUP2 MSTORE PUSH1 0x20 ADD JUMPDEST PUSH1 0x40 MLOAD DUP1 SWAP2 SUB SWAP1 RETURN JUMPDEST PUSH3 0xC7 PUSH3 0xF9 CALLDATASIZE PUSH1 0x4 PUSH3 0x1D2B JUMP JUMPDEST PUSH3 0xE63 JUMP JUMPDEST PUSH3 0xC7 PUSH3 0x110 CALLDATASIZE PUSH1 0x4 PUSH3 0x1C58 JUMP JUMPDEST PUSH3 0x111C JUMP JUMPDEST PUSH3 0xC7 PUSH3 0x116B JUMP JUMPDEST PUSH1 0x0 SLOAD PUSH3 0x139 SWAP1 PUSH2 0x100 SWAP1 DIV PUSH1 0x1 PUSH1 0x1 PUSH1 0xA0 SHL SUB AND DUP2 JUMP JUMPDEST PUSH1 0x40 MLOAD PUSH1 0x1 PUSH1 0x1 PUSH1 0xA0 SHL SUB SWAP1 SWAP2 AND DUP2 MSTORE PUSH1 0x20 ADD PUSH3 0xDF JUMP JUMPDEST PUSH3 0xC7 PUSH3 0x163 CALLDATASIZE PUSH1 0x4 PUSH3 0x1D76 JUMP JUMPDEST PUSH3 0x11A4 JUMP JUMPDEST PUSH3 0x180 PUSH3 0x17A CALLDATASIZE PUSH1 0x4 PUSH3 0x1CF7 JUMP JUMPDEST PUSH3 0x123B JUMP JUMPDEST PUSH1 0x40 MLOAD PUSH3 0xDF SWAP3 SWAP2 SWAP1 PUSH3 0x1FCB JUMP JUMPDEST PUSH3 0x19A PUSH3 0x1372 JUMP JUMPDEST PUSH1 0x40 MLOAD PUSH3 0xDF SWAP2 SWAP1 PUSH3 0x204D JUMP JUMPDEST PUSH1 0x1 SLOAD PUSH3 0x139 SWAP1 PUSH1 0x1 PUSH1 0x1 PUSH1 0xA0 SHL SUB AND DUP2 JUMP JUMPDEST PUSH1 0x1 SLOAD PUSH1 0x1 PUSH1 0x1 PUSH1 0xA0 SHL SUB AND CALLER EQ ISZERO PUSH3 0x215 JUMPI PUSH1 0x40 MLOAD PUSH3 0x461BCD PUSH1 0xE5 SHL DUP2 MSTORE PUSH1 0x20 PUSH1 0x4 DUP3 ADD MSTORE PUSH1 0x14 PUSH1 0x24 DUP3 ADD MSTORE PUSH20 0x18591B5A5B881A5CC81B9BDD08185B1B1BDDD959 PUSH1 0x62 SHL PUSH1 0x44 DUP3 ADD MSTORE PUSH1 0x64 ADD JUMPDEST PUSH1 0x40 MLOAD DUP1 SWAP2 SUB SWAP1 REVERT JUMPDEST PUSH1 0x0 SLOAD PUSH1 0xFF AND ISZERO PUSH3 0x26A JUMPI PUSH1 0x40 MLOAD PUSH3 0x461BCD PUSH1 0xE5 SHL DUP2 MSTORE PUSH1 0x20 PUSH1 0x4 DUP3 ADD MSTORE PUSH1 0x1F PUSH1 0x24 DUP3 ADD MSTORE PUSH32 0x5265656E7472616E637947756172643A207265656E7472616E742063616C6C00 PUSH1 0x44 DUP3 ADD MSTORE PUSH1 0x64 ADD PUSH3 0x20C JUMP JUMPDEST PUSH1 0x0 DUP1 SLOAD PUSH1 0xFF NOT AND PUSH1 0x1 OR SWAP1 SSTORE PUSH1 0x8 SLOAD TIMESTAMP GT ISZERO PUSH3 0x2BD JUMPI PUSH1 0x40 MLOAD PUSH3 0x461BCD PUSH1 0xE5 SHL DUP2 MSTORE PUSH1 0x20 PUSH1 0x4 DUP3 ADD MSTORE PUSH1 0xF PUSH1 0x24 DUP3 ADD MSTORE PUSH15 0x657863656564206275792074696D65 PUSH1 0x88 SHL PUSH1 0x44 DUP3 ADD MSTORE PUSH1 0x64 ADD PUSH3 0x20C JUMP JUMPDEST PUSH1 0x9 DUP1 SLOAD PUSH3 0x2CC SWAP1 PUSH3 0x21BA JUMP JUMPDEST ISZERO SWAP1 POP PUSH3 0x329 JUMPI PUSH1 0x40 MLOAD PUSH3 0x461BCD PUSH1 0xE5 SHL DUP2 MSTORE PUSH1 0x20 PUSH1 0x4 DUP3 ADD MSTORE PUSH1 0x24 DUP1 DUP3 ADD MSTORE PUSH32 0x63757272656E74206163746976697479206E756D626572206D75737420626520 PUSH1 0x44 DUP3 ADD MSTORE PUSH4 0x1B9D5B1B PUSH1 0xE2 SHL PUSH1 0x64 DUP3 ADD MSTORE PUSH1 0x84 ADD PUSH3 0x20C JUMP JUMPDEST PUSH1 0x1 PUSH1 0xA SLOAD PUSH1 0xFF AND PUSH1 0x2 DUP2 GT ISZERO PUSH3 0x345 JUMPI PUSH3 0x345 PUSH3 0x2258 JUMP JUMPDEST EQ PUSH3 0x39E JUMPI PUSH1 0x40 MLOAD PUSH3 0x461BCD PUSH1 0xE5 SHL DUP2 MSTORE PUSH1 0x20 PUSH1 0x4 DUP3 ADD MSTORE PUSH1 0x21 PUSH1 0x24 DUP3 ADD MSTORE PUSH32 0x63757272656E742061637469766974792073746174757320657863657074696F PUSH1 0x44 DUP3 ADD MSTORE PUSH1 0x37 PUSH1 0xF9 SHL PUSH1 0x64 DUP3 ADD MSTORE PUSH1 0x84 ADD PUSH3 0x20C JUMP JUMPDEST PUSH1 0x0 DUP2 GT PUSH3 0x3E5 JUMPI PUSH1 0x40 MLOAD PUSH3 0x461BCD PUSH1 0xE5 SHL DUP2 MSTORE PUSH1 0x20 PUSH1 0x4 DUP3 ADD MSTORE PUSH1 0x12 PUSH1 0x24 DUP3 ADD MSTORE PUSH18 0x616D6F756E7473206174206C656173742031 PUSH1 0x70 SHL PUSH1 0x44 DUP3 ADD MSTORE PUSH1 0x64 ADD PUSH3 0x20C JUMP JUMPDEST PUSH1 0x0 PUSH3 0x3F4 DUP3 PUSH1 0x5 PUSH3 0x214B JUMP JUMPDEST PUSH3 0x408 SWAP1 PUSH8 0xDE0B6B3A7640000 PUSH3 0x214B JUMP JUMPDEST PUSH1 0x40 MLOAD PUSH4 0x70A08231 PUSH1 0xE0 SHL DUP2 MSTORE CALLER PUSH1 0x4 DUP3 ADD MSTORE SWAP1 SWAP2 POP DUP2 SWAP1 PUSH20 0x5ED8BD53B0C3FA3DEABD345430B1A3A6A4E8BD7C SWAP1 PUSH4 0x70A08231 SWAP1 PUSH1 0x24 ADD PUSH1 0x20 PUSH1 0x40 MLOAD DUP1 DUP4 SUB DUP2 DUP7 DUP1 EXTCODESIZE ISZERO DUP1 ISZERO PUSH3 0x458 JUMPI PUSH1 0x0 DUP1 REVERT JUMPDEST POP GAS STATICCALL ISZERO DUP1 ISZERO PUSH3 0x46D JUMPI RETURNDATASIZE PUSH1 0x0 DUP1 RETURNDATACOPY RETURNDATASIZE PUSH1 0x0 REVERT JUMPDEST POP POP POP POP PUSH1 0x40 MLOAD RETURNDATASIZE PUSH1 0x1F NOT PUSH1 0x1F DUP3 ADD AND DUP3 ADD DUP1 PUSH1 0x40 MSTORE POP DUP2 ADD SWAP1 PUSH3 0x493 SWAP2 SWAP1 PUSH3 0x1D11 JUMP JUMPDEST LT ISZERO PUSH3 0x4DA JUMPI PUSH1 0x40 MLOAD PUSH3 0x461BCD PUSH1 0xE5 SHL DUP2 MSTORE PUSH1 0x20 PUSH1 0x4 DUP3 ADD MSTORE PUSH1 0x14 PUSH1 0x24 DUP3 ADD MSTORE PUSH20 0x496E73756666696369656E742062616C616E6365 PUSH1 0x60 SHL PUSH1 0x44 DUP3 ADD MSTORE PUSH1 0x64 ADD PUSH3 0x20C JUMP JUMPDEST PUSH1 0x40 MLOAD PUSH4 0x23B872DD PUSH1 0xE0 SHL DUP2 MSTORE CALLER PUSH1 0x4 DUP3 ADD MSTORE ADDRESS PUSH1 0x24 DUP3 ADD MSTORE PUSH1 0x44 DUP2 ADD DUP3 SWAP1 MSTORE PUSH1 0x0 SWAP1 PUSH20 0x5ED8BD53B0C3FA3DEABD345430B1A3A6A4E8BD7C SWAP1 PUSH4 0x23B872DD SWAP1 PUSH1 0x64 ADD PUSH1 0x20 PUSH1 0x40 MLOAD DUP1 DUP4 SUB DUP2 PUSH1 0x0 DUP8 DUP1 EXTCODESIZE ISZERO DUP1 ISZERO PUSH3 0x537 JUMPI PUSH1 0x0 DUP1 REVERT JUMPDEST POP GAS CALL ISZERO DUP1 ISZERO PUSH3 0x54C JUMPI RETURNDATASIZE PUSH1 0x0 DUP1 RETURNDATACOPY RETURNDATASIZE PUSH1 0x0 REVERT JUMPDEST POP POP POP POP PUSH1 0x40 MLOAD RETURNDATASIZE PUSH1 0x1F NOT PUSH1 0x1F DUP3 ADD AND DUP3 ADD DUP1 PUSH1 0x40 MSTORE POP DUP2 ADD SWAP1 PUSH3 0x572 SWAP2 SWAP1 PUSH3 0x1C8A JUMP JUMPDEST SWAP1 POP DUP1 PUSH3 0x5B5 JUMPI PUSH1 0x40 MLOAD PUSH3 0x461BCD PUSH1 0xE5 SHL DUP2 MSTORE PUSH1 0x20 PUSH1 0x4 DUP3 ADD MSTORE PUSH1 0xF PUSH1 0x24 DUP3 ADD MSTORE PUSH15 0x1D1C985B9CD9995C8819985A5B1959 PUSH1 0x8A SHL PUSH1 0x44 DUP3 ADD MSTORE PUSH1 0x64 ADD PUSH3 0x20C JUMP JUMPDEST PUSH1 0x40 DUP1 MLOAD PUSH1 0x60 DUP2 ADD DUP3 MSTORE CALLER DUP2 MSTORE PUSH1 0x20 DUP1 DUP3 ADD DUP8 DUP2 MSTORE SWAP3 DUP3 ADD DUP7 SWAP1 MSTORE PUSH1 0xB DUP1 SLOAD PUSH1 0x1 DUP2 ADD DUP3 SSTORE PUSH1 0x0 SWAP2 SWAP1 SWAP2 MSTORE DUP3 MLOAD PUSH32 0x175B7A638427703F0DBE7BB9BBF987A2551717B34E79F33B5B1008D1FA01DB9 PUSH1 0x3 SWAP1 SWAP3 MUL SWAP2 DUP3 ADD DUP1 SLOAD PUSH1 0x1 PUSH1 0x1 PUSH1 0xA0 SHL SUB NOT AND PUSH1 0x1 PUSH1 0x1 PUSH1 0xA0 SHL SUB SWAP1 SWAP3 AND SWAP2 SWAP1 SWAP2 OR DUP2 SSTORE SWAP4 MLOAD DUP1 MLOAD SWAP4 SWAP5 SWAP4 PUSH3 0x664 SWAP4 PUSH32 0x175B7A638427703F0DBE7BB9BBF987A2551717B34E79F33B5B1008D1FA01DBA SWAP1 SWAP4 ADD SWAP3 SWAP2 SWAP1 SWAP2 ADD SWAP1 PUSH3 0x19A0 JUMP JUMPDEST POP PUSH1 0x40 DUP3 ADD MLOAD DUP2 PUSH1 0x2 ADD SSTORE POP POP DUP2 PUSH1 0x5 PUSH1 0x1 ADD PUSH1 0x0 DUP3 DUP3 SLOAD PUSH3 0x688 SWAP2 SWAP1 PUSH3 0x2119 JUMP JUMPDEST SWAP1 SWAP2 SSTORE POP POP PUSH1 0x7 DUP1 SLOAD DUP5 SWAP2 SWAP1 PUSH1 0x0 SWAP1 PUSH3 0x6A4 SWAP1 DUP5 SWAP1 PUSH3 0x2119 JUMP JUMPDEST SWAP1 SWAP2 SSTORE POP POP PUSH1 0x40 MLOAD PUSH32 0x1160F7E42ACC25CE40A0499151736A0092C23685EF042576F568BD2435A11A36 SWAP1 PUSH3 0x6DF SWAP1 CALLER SWAP1 DUP8 SWAP1 DUP8 SWAP1 PUSH3 0x1F95 JUMP JUMPDEST PUSH1 0x40 MLOAD DUP1 SWAP2 SUB SWAP1 LOG1 POP POP PUSH1 0x0 DUP1 SLOAD PUSH1 0xFF NOT AND SWAP1 SSTORE POP POP JUMP JUMPDEST PUSH1 0x1 SLOAD PUSH1 0x0 SWAP1 PUSH1 0x1 PUSH1 0x1 PUSH1 0xA0 SHL SUB AND CALLER EQ PUSH3 0x727 JUMPI PUSH1 0x40 MLOAD PUSH3 0x461BCD PUSH1 0xE5 SHL DUP2 MSTORE PUSH1 0x4 ADD PUSH3 0x20C SWAP1 PUSH3 0x2022 JUMP JUMPDEST PUSH1 0x0 SLOAD PUSH1 0xFF AND ISZERO PUSH3 0x77C JUMPI PUSH1 0x40 MLOAD PUSH3 0x461BCD PUSH1 0xE5 SHL DUP2 MSTORE PUSH1 0x20 PUSH1 0x4 DUP3 ADD MSTORE PUSH1 0x1F PUSH1 0x24 DUP3 ADD MSTORE PUSH32 0x5265656E7472616E637947756172643A207265656E7472616E742063616C6C00 PUSH1 0x44 DUP3 ADD MSTORE PUSH1 0x64 ADD PUSH3 0x20C JUMP JUMPDEST PUSH1 0x0 DUP1 SLOAD PUSH1 0xFF NOT AND PUSH1 0x1 OR SWAP1 SSTORE PUSH1 0x8 SLOAD TIMESTAMP GT PUSH3 0x7EA JUMPI PUSH1 0x40 MLOAD PUSH3 0x461BCD PUSH1 0xE5 SHL DUP2 MSTORE PUSH1 0x20 PUSH1 0x4 DUP3 ADD MSTORE PUSH1 0x25 PUSH1 0x24 DUP3 ADD MSTORE PUSH32 0x546865206C6F74746572792074696D6520686173206E6F74206265656E207265 PUSH1 0x44 DUP3 ADD MSTORE PUSH5 0x1858DA1959 PUSH1 0xDA SHL PUSH1 0x64 DUP3 ADD MSTORE PUSH1 0x84 ADD PUSH3 0x20C JUMP JUMPDEST PUSH1 0xA SLOAD PUSH2 0x100 SWAP1 DIV PUSH1 0xFF AND ISZERO PUSH3 0x844 JUMPI PUSH1 0x40 MLOAD PUSH3 0x461BCD PUSH1 0xE5 SHL DUP2 MSTORE PUSH1 0x20 PUSH1 0x4 DUP3 ADD MSTORE PUSH1 0x1C PUSH1 0x24 DUP3 ADD MSTORE PUSH32 0x5072697A65732068617665206265656E20646973747269627574656400000000 PUSH1 0x44 DUP3 ADD MSTORE PUSH1 0x64 ADD PUSH3 0x20C JUMP JUMPDEST PUSH1 0x0 PUSH1 0xA SLOAD PUSH1 0xFF AND PUSH1 0x2 DUP2 GT ISZERO PUSH3 0x860 JUMPI PUSH3 0x860 PUSH3 0x2258 JUMP JUMPDEST EQ ISZERO PUSH3 0x8B0 JUMPI PUSH1 0x40 MLOAD PUSH3 0x461BCD PUSH1 0xE5 SHL DUP2 MSTORE PUSH1 0x20 PUSH1 0x4 DUP3 ADD MSTORE PUSH1 0x18 PUSH1 0x24 DUP3 ADD MSTORE PUSH32 0x416374697669747920686173206265656E20636C6F7365640000000000000000 PUSH1 0x44 DUP3 ADD MSTORE PUSH1 0x64 ADD PUSH3 0x20C JUMP JUMPDEST PUSH1 0xA DUP1 SLOAD PUSH1 0xFF NOT AND PUSH1 0x2 OR SWAP1 SSTORE PUSH1 0x0 PUSH3 0x8C9 PUSH3 0x15B1 JUMP JUMPDEST SWAP1 POP PUSH1 0x0 PUSH3 0x8D8 DUP3 PUSH3 0x16FA JUMP JUMPDEST DUP1 MLOAD SWAP1 SWAP2 POP PUSH3 0x8F0 SWAP1 PUSH1 0x9 SWAP1 PUSH1 0x20 DUP5 ADD SWAP1 PUSH3 0x19A0 JUMP JUMPDEST POP PUSH1 0x0 DUP1 JUMPDEST PUSH1 0xB SLOAD DUP2 LT ISZERO PUSH3 0xA96 JUMPI PUSH1 0x0 PUSH1 0x5 PUSH1 0x6 ADD DUP3 DUP2 SLOAD DUP2 LT PUSH3 0x91B JUMPI PUSH3 0x91B PUSH3 0x226E JUMP JUMPDEST PUSH1 0x0 SWAP2 DUP3 MSTORE PUSH1 0x20 SWAP2 DUP3 SWAP1 KECCAK256 PUSH1 0x40 DUP1 MLOAD PUSH1 0x60 DUP2 ADD SWAP1 SWAP2 MSTORE PUSH1 0x3 SWAP1 SWAP3 MUL ADD DUP1 SLOAD PUSH1 0x1 PUSH1 0x1 PUSH1 0xA0 SHL SUB AND DUP3 MSTORE PUSH1 0x1 DUP2 ADD DUP1 SLOAD SWAP3 SWAP4 SWAP2 SWAP3 SWAP2 DUP5 ADD SWAP2 PUSH3 0x95D SWAP1 PUSH3 0x21BA JUMP JUMPDEST DUP1 PUSH1 0x1F ADD PUSH1 0x20 DUP1 SWAP2 DIV MUL PUSH1 0x20 ADD PUSH1 0x40 MLOAD SWAP1 DUP2 ADD PUSH1 0x40 MSTORE DUP1 SWAP3 SWAP2 SWAP1 DUP2 DUP2 MSTORE PUSH1 0x20 ADD DUP3 DUP1 SLOAD PUSH3 0x98B SWAP1 PUSH3 0x21BA JUMP JUMPDEST DUP1 ISZERO PUSH3 0x9DC JUMPI DUP1 PUSH1 0x1F LT PUSH3 0x9B0 JUMPI PUSH2 0x100 DUP1 DUP4 SLOAD DIV MUL DUP4 MSTORE SWAP2 PUSH1 0x20 ADD SWAP2 PUSH3 0x9DC JUMP JUMPDEST DUP3 ADD SWAP2 SWAP1 PUSH1 0x0 MSTORE PUSH1 0x20 PUSH1 0x0 KECCAK256 SWAP1 JUMPDEST DUP2 SLOAD DUP2 MSTORE SWAP1 PUSH1 0x1 ADD SWAP1 PUSH1 0x20 ADD DUP1 DUP4 GT PUSH3 0x9BE JUMPI DUP3 SWAP1 SUB PUSH1 0x1F AND DUP3 ADD SWAP2 JUMPDEST POP POP POP POP POP DUP2 MSTORE PUSH1 0x20 ADD PUSH1 0x2 DUP3 ADD SLOAD DUP2 MSTORE POP POP SWAP1 POP PUSH3 0xA01 DUP2 PUSH1 0x20 ADD MLOAD DUP6 PUSH3 0x1812 JUMP JUMPDEST PUSH3 0xA0D JUMPI POP PUSH3 0xA81 JUMP JUMPDEST DUP1 MLOAD PUSH1 0x2 DUP1 SLOAD PUSH1 0x1 SWAP6 POP DUP5 SWAP1 DUP2 LT PUSH3 0xA2A JUMPI PUSH3 0xA2A PUSH3 0x226E JUMP JUMPDEST SWAP1 PUSH1 0x0 MSTORE PUSH1 0x20 PUSH1 0x0 KECCAK256 ADD PUSH1 0x0 PUSH2 0x100 EXP DUP2 SLOAD DUP2 PUSH1 0x1 PUSH1 0x1 PUSH1 0xA0 SHL SUB MUL NOT AND SWAP1 DUP4 PUSH1 0x1 PUSH1 0x1 PUSH1 0xA0 SHL SUB AND MUL OR SWAP1 SSTORE POP DUP1 PUSH1 0x40 ADD MLOAD PUSH1 0x3 DUP4 DUP2 SLOAD DUP2 LT PUSH3 0xA73 JUMPI PUSH3 0xA73 PUSH3 0x226E JUMP JUMPDEST PUSH1 0x0 SWAP2 DUP3 MSTORE PUSH1 0x20 SWAP1 SWAP2 KECCAK256 ADD SSTORE POP JUMPDEST DUP1 PUSH3 0xA8D DUP2 PUSH3 0x21F7 JUMP JUMPDEST SWAP2 POP POP PUSH3 0x8F5 JUMP JUMPDEST POP DUP1 ISZERO PUSH3 0xE4E JUMPI PUSH1 0x40 MLOAD DUP1 PUSH1 0x40 ADD PUSH1 0x40 MSTORE DUP1 PUSH1 0x5 PUSH1 0x4 ADD DUP1 SLOAD PUSH3 0xABB SWAP1 PUSH3 0x21BA JUMP JUMPDEST DUP1 PUSH1 0x1F ADD PUSH1 0x20 DUP1 SWAP2 DIV MUL PUSH1 0x20 ADD PUSH1 0x40 MLOAD SWAP1 DUP2 ADD PUSH1 0x40 MSTORE DUP1 SWAP3 SWAP2 SWAP1 DUP2 DUP2 MSTORE PUSH1 0x20 ADD DUP3 DUP1 SLOAD PUSH3 0xAE9 SWAP1 PUSH3 0x21BA JUMP JUMPDEST DUP1 ISZERO PUSH3 0xB3A JUMPI DUP1 PUSH1 0x1F LT PUSH3 0xB0E JUMPI PUSH2 0x100 DUP1 DUP4 SLOAD DIV MUL DUP4 MSTORE SWAP2 PUSH1 0x20 ADD SWAP2 PUSH3 0xB3A JUMP JUMPDEST DUP3 ADD SWAP2 SWAP1 PUSH1 0x0 MSTORE PUSH1 0x20 PUSH1 0x0 KECCAK256 SWAP1 JUMPDEST DUP2 SLOAD DUP2 MSTORE SWAP1 PUSH1 0x1 ADD SWAP1 PUSH1 0x20 ADD DUP1 DUP4 GT PUSH3 0xB1C JUMPI DUP3 SWAP1 SUB PUSH1 0x1F AND DUP3 ADD SWAP2 JUMPDEST POP POP POP POP POP DUP2 MSTORE PUSH1 0x20 ADD PUSH1 0x2 DUP1 SLOAD DUP1 PUSH1 0x20 MUL PUSH1 0x20 ADD PUSH1 0x40 MLOAD SWAP1 DUP2 ADD PUSH1 0x40 MSTORE DUP1 SWAP3 SWAP2 SWAP1 DUP2 DUP2 MSTORE PUSH1 0x20 ADD DUP3 DUP1 SLOAD DUP1 ISZERO PUSH3 0xB9C JUMPI PUSH1 0x20 MUL DUP3 ADD SWAP2 SWAP1 PUSH1 0x0 MSTORE PUSH1 0x20 PUSH1 0x0 KECCAK256 SWAP1 JUMPDEST DUP2 SLOAD PUSH1 0x1 PUSH1 0x1 PUSH1 0xA0 SHL SUB AND DUP2 MSTORE PUSH1 0x1 SWAP1 SWAP2 ADD SWAP1 PUSH1 0x20 ADD DUP1 DUP4 GT PUSH3 0xB7D JUMPI JUMPDEST POP POP POP SWAP2 SWAP1 SWAP3 MSTORE POP POP PUSH1 0x5 SLOAD PUSH1 0x0 SWAP1 DUP2 MSTORE PUSH1 0x4 PUSH1 0x20 SWAP1 DUP2 MSTORE PUSH1 0x40 SWAP1 SWAP2 KECCAK256 DUP3 MLOAD DUP1 MLOAD SWAP2 SWAP3 PUSH3 0xBD0 SWAP3 DUP5 SWAP3 SWAP1 SWAP2 ADD SWAP1 PUSH3 0x19A0 JUMP JUMPDEST POP PUSH1 0x20 DUP3 DUP2 ADD MLOAD DUP1 MLOAD PUSH3 0xBEB SWAP3 PUSH1 0x1 DUP6 ADD SWAP3 ADD SWAP1 PUSH3 0x1A2F JUMP JUMPDEST POP POP PUSH1 0x6 SLOAD SWAP1 POP PUSH1 0x0 PUSH1 0x64 PUSH3 0xC03 DUP4 PUSH1 0x50 PUSH3 0x214B JUMP JUMPDEST PUSH3 0xC0F SWAP2 SWAP1 PUSH3 0x2134 JUMP JUMPDEST SWAP1 POP PUSH1 0x0 JUMPDEST PUSH1 0x2 SLOAD DUP2 LT ISZERO PUSH3 0xDAE JUMPI PUSH1 0x0 PUSH1 0x2 DUP3 DUP2 SLOAD DUP2 LT PUSH3 0xC37 JUMPI PUSH3 0xC37 PUSH3 0x226E JUMP JUMPDEST PUSH1 0x0 SWAP2 DUP3 MSTORE PUSH1 0x20 DUP3 KECCAK256 ADD SLOAD PUSH1 0x3 DUP1 SLOAD PUSH1 0x1 PUSH1 0x1 PUSH1 0xA0 SHL SUB SWAP1 SWAP3 AND SWAP4 POP SWAP1 DUP5 SWAP1 DUP2 LT PUSH3 0xC67 JUMPI PUSH3 0xC67 PUSH3 0x226E JUMP JUMPDEST PUSH1 0x0 SWAP2 DUP3 MSTORE PUSH1 0x20 SWAP1 SWAP2 KECCAK256 ADD SLOAD SWAP1 POP PUSH1 0x1 PUSH1 0x1 PUSH1 0xA0 SHL SUB DUP3 AND ISZERO DUP1 ISZERO SWAP1 PUSH3 0xC8D JUMPI POP DUP1 ISZERO ISZERO JUMPDEST ISZERO PUSH3 0xD96 JUMPI PUSH1 0x7 SLOAD PUSH1 0x0 SWAP1 PUSH20 0x5ED8BD53B0C3FA3DEABD345430B1A3A6A4E8BD7C SWAP1 PUSH4 0xA9059CBB SWAP1 DUP6 SWAP1 PUSH3 0xCC3 DUP7 DUP11 PUSH3 0x214B JUMP JUMPDEST PUSH3 0xCCF SWAP2 SWAP1 PUSH3 0x2134 JUMP JUMPDEST PUSH1 0x40 MLOAD PUSH1 0x1 PUSH1 0x1 PUSH1 0xE0 SHL SUB NOT PUSH1 0xE0 DUP6 SWAP1 SHL AND DUP2 MSTORE PUSH1 0x1 PUSH1 0x1 PUSH1 0xA0 SHL SUB SWAP1 SWAP3 AND PUSH1 0x4 DUP4 ADD MSTORE PUSH1 0x24 DUP3 ADD MSTORE PUSH1 0x44 ADD PUSH1 0x20 PUSH1 0x40 MLOAD DUP1 DUP4 SUB DUP2 PUSH1 0x0 DUP8 DUP1 EXTCODESIZE ISZERO DUP1 ISZERO PUSH3 0xD16 JUMPI PUSH1 0x0 DUP1 REVERT JUMPDEST POP GAS CALL ISZERO DUP1 ISZERO PUSH3 0xD2B JUMPI RETURNDATASIZE PUSH1 0x0 DUP1 RETURNDATACOPY RETURNDATASIZE PUSH1 0x0 REVERT JUMPDEST POP POP POP POP PUSH1 0x40 MLOAD RETURNDATASIZE PUSH1 0x1F NOT PUSH1 0x1F DUP3 ADD AND DUP3 ADD DUP1 PUSH1 0x40 MSTORE POP DUP2 ADD SWAP1 PUSH3 0xD51 SWAP2 SWAP1 PUSH3 0x1C8A JUMP JUMPDEST SWAP1 POP DUP1 PUSH3 0xD94 JUMPI PUSH1 0x40 MLOAD PUSH3 0x461BCD PUSH1 0xE5 SHL DUP2 MSTORE PUSH1 0x20 PUSH1 0x4 DUP3 ADD MSTORE PUSH1 0xF PUSH1 0x24 DUP3 ADD MSTORE PUSH15 0x1D1C985B9CD9995C8819985A5B1959 PUSH1 0x8A SHL PUSH1 0x44 DUP3 ADD MSTORE PUSH1 0x64 ADD PUSH3 0x20C JUMP JUMPDEST POP JUMPDEST POP POP DUP1 DUP1 PUSH3 0xDA5 SWAP1 PUSH3 0x21F7 JUMP JUMPDEST SWAP2 POP POP PUSH3 0xC14 JUMP JUMPDEST POP PUSH1 0xA DUP1 SLOAD PUSH2 0xFFFF NOT AND PUSH2 0x100 OR SWAP1 SSTORE PUSH3 0xDCC PUSH1 0x2 PUSH1 0x0 PUSH3 0x1A87 JUMP JUMPDEST PUSH3 0xDDA PUSH1 0x3 PUSH1 0x0 PUSH3 0x1A87 JUMP JUMPDEST PUSH1 0x2 PUSH1 0x40 MLOAD PUSH3 0xDEB SWAP2 SWAP1 PUSH3 0x1E58 JUMP JUMPDEST PUSH1 0x40 MLOAD SWAP1 DUP2 SWAP1 SUB DUP2 KECCAK256 SWAP1 PUSH3 0xE03 SWAP1 PUSH1 0x9 SWAP1 PUSH3 0x1EF1 JUMP JUMPDEST PUSH1 0x40 MLOAD SWAP1 DUP2 SWAP1 SUB DUP2 KECCAK256 PUSH1 0x5 SLOAD DUP3 MSTORE SWAP1 PUSH32 0x9399A616079C875385C43F33683A04AC284A7F9BD863D4186762490C94B54AF8 SWAP1 PUSH1 0x20 ADD PUSH1 0x40 MLOAD DUP1 SWAP2 SUB SWAP1 LOG3 PUSH1 0x1 SWAP6 POP POP POP POP POP POP PUSH3 0xE56 JUMP JUMPDEST PUSH1 0x0 SWAP4 POP POP POP POP JUMPDEST PUSH1 0x0 DUP1 SLOAD PUSH1 0xFF NOT AND SWAP1 SSTORE SWAP1 JUMP JUMPDEST PUSH1 0x1 SLOAD PUSH1 0x1 PUSH1 0x1 PUSH1 0xA0 SHL SUB AND CALLER EQ PUSH3 0xE90 JUMPI PUSH1 0x40 MLOAD PUSH3 0x461BCD PUSH1 0xE5 SHL DUP2 MSTORE PUSH1 0x4 ADD PUSH3 0x20C SWAP1 PUSH3 0x2022 JUMP JUMPDEST PUSH1 0x8 SLOAD TIMESTAMP GT PUSH3 0xEE3 JUMPI PUSH1 0x40 MLOAD PUSH3 0x461BCD PUSH1 0xE5 SHL DUP2 MSTORE PUSH1 0x20 PUSH1 0x4 DUP3 ADD DUP2 SWAP1 MSTORE PUSH1 0x24 DUP3 ADD MSTORE PUSH32 0x63757272656E74206163746976697479206973206E6F74206F76657220796574 PUSH1 0x44 DUP3 ADD MSTORE PUSH1 0x64 ADD PUSH3 0x20C JUMP JUMPDEST PUSH1 0x0 PUSH1 0xA SLOAD PUSH1 0xFF AND PUSH1 0x2 DUP2 GT ISZERO PUSH3 0xEFF JUMPI PUSH3 0xEFF PUSH3 0x2258 JUMP JUMPDEST EQ PUSH3 0xF4E JUMPI PUSH1 0x40 MLOAD PUSH3 0x461BCD PUSH1 0xE5 SHL DUP2 MSTORE PUSH1 0x20 PUSH1 0x4 DUP3 ADD DUP2 SWAP1 MSTORE PUSH1 0x24 DUP3 ADD MSTORE PUSH32 0x63757272656E742061637469766974792069732077726F6E6720737461747573 PUSH1 0x44 DUP3 ADD MSTORE PUSH1 0x64 ADD PUSH3 0x20C JUMP JUMPDEST PUSH1 0x0 PUSH3 0xF75 DUP3 PUSH1 0x40 MLOAD DUP1 PUSH1 0x40 ADD PUSH1 0x40 MSTORE DUP1 PUSH1 0x1 DUP2 MSTORE PUSH1 0x20 ADD PUSH1 0x73 PUSH1 0xF8 SHL DUP2 MSTORE POP PUSH3 0x1812 JUMP JUMPDEST ISZERO PUSH3 0xF8F JUMPI PUSH3 0xF87 DUP4 TIMESTAMP PUSH3 0x2119 JUMP JUMPDEST SWAP1 POP PUSH3 0x1081 JUMP JUMPDEST PUSH3 0xFB4 DUP3 PUSH1 0x40 MLOAD DUP1 PUSH1 0x40 ADD PUSH1 0x40 MSTORE DUP1 PUSH1 0x1 DUP2 MSTORE PUSH1 0x20 ADD PUSH1 0x6D PUSH1 0xF8 SHL DUP2 MSTORE POP PUSH3 0x1812 JUMP JUMPDEST ISZERO PUSH3 0xFD3 JUMPI PUSH3 0xFC7 DUP4 PUSH1 0x3C PUSH3 0x214B JUMP JUMPDEST PUSH3 0xF87 SWAP1 TIMESTAMP PUSH3 0x2119 JUMP JUMPDEST PUSH3 0xFF8 DUP3 PUSH1 0x40 MLOAD DUP1 PUSH1 0x40 ADD PUSH1 0x40 MSTORE DUP1 PUSH1 0x1 DUP2 MSTORE PUSH1 0x20 ADD PUSH1 0xD PUSH1 0xFB SHL DUP2 MSTORE POP PUSH3 0x1812 JUMP JUMPDEST ISZERO PUSH3 0x100C JUMPI PUSH3 0xFC7 DUP4 PUSH2 0xE10 PUSH3 0x214B JUMP JUMPDEST PUSH3 0x1031 DUP3 PUSH1 0x40 MLOAD DUP1 PUSH1 0x40 ADD PUSH1 0x40 MSTORE DUP1 PUSH1 0x1 DUP2 MSTORE PUSH1 0x20 ADD PUSH1 0x19 PUSH1 0xFA SHL DUP2 MSTORE POP PUSH3 0x1812 JUMP JUMPDEST ISZERO PUSH3 0x1046 JUMPI PUSH3 0xFC7 DUP4 PUSH3 0x15180 PUSH3 0x214B JUMP JUMPDEST PUSH1 0x40 MLOAD PUSH3 0x461BCD PUSH1 0xE5 SHL DUP2 MSTORE PUSH1 0x20 PUSH1 0x4 DUP3 ADD MSTORE PUSH1 0xF PUSH1 0x24 DUP3 ADD MSTORE PUSH15 0x1DDC9BDB99C81D1A5B59481D5B9A5D PUSH1 0x8A SHL PUSH1 0x44 DUP3 ADD MSTORE PUSH1 0x64 ADD PUSH3 0x20C JUMP JUMPDEST PUSH1 0x5 DUP1 SLOAD SWAP1 PUSH1 0x0 PUSH3 0x1093 DUP4 PUSH3 0x21F7 JUMP JUMPDEST SWAP1 SWAP2 SSTORE POP POP PUSH1 0x8 DUP2 SWAP1 SSTORE PUSH1 0xA DUP1 SLOAD PUSH1 0xFF NOT AND PUSH1 0x1 OR SWAP1 SSTORE PUSH3 0x10B8 PUSH1 0x9 PUSH1 0x0 PUSH3 0x1AAA JUMP JUMPDEST PUSH3 0x10C6 PUSH1 0xB PUSH1 0x0 PUSH3 0x1AE9 JUMP JUMPDEST PUSH1 0x0 PUSH1 0x6 DUP2 SWAP1 SSTORE PUSH1 0x7 SSTORE PUSH1 0xA DUP1 SLOAD PUSH2 0xFF00 NOT AND SWAP1 SSTORE PUSH1 0x40 MLOAD PUSH32 0xA3C2D6BD29D5C0FE528651349C26D0E9A184198DC7FE7F90E34D2FE3350A9A3F SWAP1 PUSH3 0x110F SWAP1 DUP6 SWAP1 DUP6 SWAP1 PUSH3 0x20FE JUMP JUMPDEST PUSH1 0x40 MLOAD DUP1 SWAP2 SUB SWAP1 LOG1 POP POP POP JUMP JUMPDEST PUSH1 0x1 SLOAD PUSH1 0x1 PUSH1 0x1 PUSH1 0xA0 SHL SUB AND CALLER EQ PUSH3 0x1149 JUMPI PUSH1 0x40 MLOAD PUSH3 0x461BCD PUSH1 0xE5 SHL DUP2 MSTORE PUSH1 0x4 ADD PUSH3 0x20C SWAP1 PUSH3 0x2022 JUMP JUMPDEST PUSH1 0x1 DUP1 SLOAD PUSH1 0x1 PUSH1 0x1 PUSH1 0xA0 SHL SUB NOT AND PUSH1 0x1 PUSH1 0x1 PUSH1 0xA0 SHL SUB SWAP3 SWAP1 SWAP3 AND SWAP2 SWAP1 SWAP2 OR SWAP1 SSTORE JUMP JUMPDEST PUSH1 0x1 SLOAD PUSH1 0x1 PUSH1 0x1 PUSH1 0xA0 SHL SUB AND CALLER EQ PUSH3 0x1198 JUMPI PUSH1 0x40 MLOAD PUSH3 0x461BCD PUSH1 0xE5 SHL DUP2 MSTORE PUSH1 0x4 ADD PUSH3 0x20C SWAP1 PUSH3 0x2022 JUMP JUMPDEST PUSH1 0xA DUP1 SLOAD PUSH1 0xFF NOT AND SWAP1 SSTORE JUMP JUMPDEST PUSH1 0x1 SLOAD PUSH1 0x1 PUSH1 0x1 PUSH1 0xA0 SHL SUB AND CALLER EQ PUSH3 0x11D1 JUMPI PUSH1 0x40 MLOAD PUSH3 0x461BCD PUSH1 0xE5 SHL DUP2 MSTORE PUSH1 0x4 ADD PUSH3 0x20C SWAP1 PUSH3 0x2022 JUMP JUMPDEST PUSH1 0x0 DUP2 PUSH1 0x40 MLOAD PUSH3 0x11E2 SWAP1 PUSH3 0x1B0C JUMP JUMPDEST PUSH8 0xFFFFFFFFFFFFFFFF SWAP1 SWAP2 AND DUP2 MSTORE PUSH1 0x20 ADD PUSH1 0x40 MLOAD DUP1 SWAP2 SUB SWAP1 PUSH1 0x0 CREATE DUP1 ISZERO DUP1 ISZERO PUSH3 0x1210 JUMPI RETURNDATASIZE PUSH1 0x0 DUP1 RETURNDATACOPY RETURNDATASIZE PUSH1 0x0 REVERT JUMPDEST POP PUSH1 0x0 DUP1 SLOAD PUSH1 0x1 PUSH1 0x1 PUSH1 0xA0 SHL SUB SWAP1 SWAP3 AND PUSH2 0x100 MUL PUSH2 0x100 PUSH1 0x1 PUSH1 0xA8 SHL SUB NOT SWAP1 SWAP3 AND SWAP2 SWAP1 SWAP2 OR SWAP1 SSTORE POP POP JUMP JUMPDEST PUSH1 0x60 DUP1 PUSH1 0x0 PUSH1 0x4 PUSH1 0x0 DUP6 DUP2 MSTORE PUSH1 0x20 ADD SWAP1 DUP2 MSTORE PUSH1 0x20 ADD PUSH1 0x0 KECCAK256 PUSH1 0x40 MLOAD DUP1 PUSH1 0x40 ADD PUSH1 0x40 MSTORE SWAP1 DUP2 PUSH1 0x0 DUP3 ADD DUP1 SLOAD PUSH3 0x1270 SWAP1 PUSH3 0x21BA JUMP JUMPDEST DUP1 PUSH1 0x1F ADD PUSH1 0x20 DUP1 SWAP2 DIV MUL PUSH1 0x20 ADD PUSH1 0x40 MLOAD SWAP1 DUP2 ADD PUSH1 0x40 MSTORE DUP1 SWAP3 SWAP2 SWAP1 DUP2 DUP2 MSTORE PUSH1 0x20 ADD DUP3 DUP1 SLOAD PUSH3 0x129E SWAP1 PUSH3 0x21BA JUMP JUMPDEST DUP1 ISZERO PUSH3 0x12EF JUMPI DUP1 PUSH1 0x1F LT PUSH3 0x12C3 JUMPI PUSH2 0x100 DUP1 DUP4 SLOAD DIV MUL DUP4 MSTORE SWAP2 PUSH1 0x20 ADD SWAP2 PUSH3 0x12EF JUMP JUMPDEST DUP3 ADD SWAP2 SWAP1 PUSH1 0x0 MSTORE PUSH1 0x20 PUSH1 0x0 KECCAK256 SWAP1 JUMPDEST DUP2 SLOAD DUP2 MSTORE SWAP1 PUSH1 0x1 ADD SWAP1 PUSH1 0x20 ADD DUP1 DUP4 GT PUSH3 0x12D1 JUMPI DUP3 SWAP1 SUB PUSH1 0x1F AND DUP3 ADD SWAP2 JUMPDEST POP POP POP POP POP DUP2 MSTORE PUSH1 0x20 ADD PUSH1 0x1 DUP3 ADD DUP1 SLOAD DUP1 PUSH1 0x20 MUL PUSH1 0x20 ADD PUSH1 0x40 MLOAD SWAP1 DUP2 ADD PUSH1 0x40 MSTORE DUP1 SWAP3 SWAP2 SWAP1 DUP2 DUP2 MSTORE PUSH1 0x20 ADD DUP3 DUP1 SLOAD DUP1 ISZERO PUSH3 0x1353 JUMPI PUSH1 0x20 MUL DUP3 ADD SWAP2 SWAP1 PUSH1 0x0 MSTORE PUSH1 0x20 PUSH1 0x0 KECCAK256 SWAP1 JUMPDEST DUP2 SLOAD PUSH1 0x1 PUSH1 0x1 PUSH1 0xA0 SHL SUB AND DUP2 MSTORE PUSH1 0x1 SWAP1 SWAP2 ADD SWAP1 PUSH1 0x20 ADD DUP1 DUP4 GT PUSH3 0x1334 JUMPI JUMPDEST POP POP POP POP POP DUP2 MSTORE POP POP SWAP1 POP DUP1 PUSH1 0x0 ADD MLOAD SWAP3 POP DUP1 PUSH1 0x20 ADD MLOAD SWAP2 POP POP SWAP2 POP SWAP2 JUMP JUMPDEST PUSH3 0x137C PUSH3 0x1B1A JUMP JUMPDEST PUSH1 0x40 DUP1 MLOAD PUSH2 0x100 DUP2 ADD DUP3 MSTORE PUSH1 0x5 DUP1 SLOAD DUP3 MSTORE PUSH1 0x6 SLOAD PUSH1 0x20 DUP4 ADD MSTORE PUSH1 0x7 SLOAD SWAP3 DUP3 ADD SWAP3 SWAP1 SWAP3 MSTORE PUSH1 0x8 SLOAD PUSH1 0x60 DUP3 ADD MSTORE PUSH1 0x9 DUP1 SLOAD SWAP2 SWAP3 SWAP2 PUSH1 0x80 DUP5 ADD SWAP2 SWAP1 PUSH3 0x13BF SWAP1 PUSH3 0x21BA JUMP JUMPDEST DUP1 PUSH1 0x1F ADD PUSH1 0x20 DUP1 SWAP2 DIV MUL PUSH1 0x20 ADD PUSH1 0x40 MLOAD SWAP1 DUP2 ADD PUSH1 0x40 MSTORE DUP1 SWAP3 SWAP2 SWAP1 DUP2 DUP2 MSTORE PUSH1 0x20 ADD DUP3 DUP1 SLOAD PUSH3 0x13ED SWAP1 PUSH3 0x21BA JUMP JUMPDEST DUP1 ISZERO PUSH3 0x143E JUMPI DUP1 PUSH1 0x1F LT PUSH3 0x1412 JUMPI PUSH2 0x100 DUP1 DUP4 SLOAD DIV MUL DUP4 MSTORE SWAP2 PUSH1 0x20 ADD SWAP2 PUSH3 0x143E JUMP JUMPDEST DUP3 ADD SWAP2 SWAP1 PUSH1 0x0 MSTORE PUSH1 0x20 PUSH1 0x0 KECCAK256 SWAP1 JUMPDEST DUP2 SLOAD DUP2 MSTORE SWAP1 PUSH1 0x1 ADD SWAP1 PUSH1 0x20 ADD DUP1 DUP4 GT PUSH3 0x1420 JUMPI DUP3 SWAP1 SUB PUSH1 0x1F AND DUP3 ADD SWAP2 JUMPDEST POP POP POP SWAP2 DUP4 MSTORE POP POP PUSH1 0x5 DUP3 ADD SLOAD PUSH1 0x20 SWAP1 SWAP2 ADD SWAP1 PUSH1 0xFF AND PUSH1 0x2 DUP2 GT ISZERO PUSH3 0x1468 JUMPI PUSH3 0x1468 PUSH3 0x2258 JUMP JUMPDEST PUSH1 0x2 DUP2 GT ISZERO PUSH3 0x147C JUMPI PUSH3 0x147C PUSH3 0x2258 JUMP JUMPDEST DUP2 MSTORE PUSH1 0x5 DUP3 ADD SLOAD PUSH2 0x100 SWAP1 DIV PUSH1 0xFF AND ISZERO ISZERO PUSH1 0x20 DUP1 DUP4 ADD SWAP2 SWAP1 SWAP2 MSTORE PUSH1 0x6 DUP4 ADD DUP1 SLOAD PUSH1 0x40 DUP1 MLOAD DUP3 DUP6 MUL DUP2 ADD DUP6 ADD DUP3 MSTORE DUP3 DUP2 MSTORE SWAP5 ADD SWAP4 SWAP3 PUSH1 0x0 SWAP1 DUP5 ADD JUMPDEST DUP3 DUP3 LT ISZERO PUSH3 0x15A4 JUMPI PUSH1 0x0 DUP5 DUP2 MSTORE PUSH1 0x20 SWAP1 DUP2 SWAP1 KECCAK256 PUSH1 0x40 DUP1 MLOAD PUSH1 0x60 DUP2 ADD SWAP1 SWAP2 MSTORE PUSH1 0x3 DUP6 MUL SWAP1 SWAP2 ADD DUP1 SLOAD PUSH1 0x1 PUSH1 0x1 PUSH1 0xA0 SHL SUB AND DUP3 MSTORE PUSH1 0x1 DUP2 ADD DUP1 SLOAD SWAP3 SWAP4 SWAP2 SWAP3 SWAP2 DUP5 ADD SWAP2 PUSH3 0x1502 SWAP1 PUSH3 0x21BA JUMP JUMPDEST DUP1 PUSH1 0x1F ADD PUSH1 0x20 DUP1 SWAP2 DIV MUL PUSH1 0x20 ADD PUSH1 0x40 MLOAD SWAP1 DUP2 ADD PUSH1 0x40 MSTORE DUP1 SWAP3 SWAP2 SWAP1 DUP2 DUP2 MSTORE PUSH1 0x20 ADD DUP3 DUP1 SLOAD PUSH3 0x1530 SWAP1 PUSH3 0x21BA JUMP JUMPDEST DUP1 ISZERO PUSH3 0x1581 JUMPI DUP1 PUSH1 0x1F LT PUSH3 0x1555 JUMPI PUSH2 0x100 DUP1 DUP4 SLOAD DIV MUL DUP4 MSTORE SWAP2 PUSH1 0x20 ADD SWAP2 PUSH3 0x1581 JUMP JUMPDEST DUP3 ADD SWAP2 SWAP1 PUSH1 0x0 MSTORE PUSH1 0x20 PUSH1 0x0 KECCAK256 SWAP1 JUMPDEST DUP2 SLOAD DUP2 MSTORE SWAP1 PUSH1 0x1 ADD SWAP1 PUSH1 0x20 ADD DUP1 DUP4 GT PUSH3 0x1563 JUMPI DUP3 SWAP1 SUB PUSH1 0x1F AND DUP3 ADD SWAP2 JUMPDEST POP POP POP POP POP DUP2 MSTORE PUSH1 0x20 ADD PUSH1 0x2 DUP3 ADD SLOAD DUP2 MSTORE POP POP DUP2 MSTORE PUSH1 0x20 ADD SWAP1 PUSH1 0x1 ADD SWAP1 PUSH3 0x14B6 JUMP JUMPDEST POP POP POP POP DUP2 MSTORE POP POP SWAP1 POP SWAP1 JUMP JUMPDEST PUSH1 0x0 DUP1 SLOAD PUSH2 0x100 SWAP1 DIV PUSH1 0x1 PUSH1 0x1 PUSH1 0xA0 SHL SUB AND PUSH3 0x1611 JUMPI PUSH1 0x40 MLOAD PUSH3 0x461BCD PUSH1 0xE5 SHL DUP2 MSTORE PUSH1 0x20 PUSH1 0x4 DUP3 ADD MSTORE PUSH1 0x1A PUSH1 0x24 DUP3 ADD MSTORE PUSH32 0x56524620616464726573732063616E6E6F74206265206E756C6C000000000000 PUSH1 0x44 DUP3 ADD MSTORE PUSH1 0x64 ADD PUSH3 0x20C JUMP JUMPDEST PUSH1 0x0 DUP1 PUSH1 0x1 SWAP1 SLOAD SWAP1 PUSH2 0x100 EXP SWAP1 DIV PUSH1 0x1 PUSH1 0x1 PUSH1 0xA0 SHL SUB AND SWAP1 POP DUP1 PUSH1 0x1 PUSH1 0x1 PUSH1 0xA0 SHL SUB AND PUSH4 0xE0C86289 PUSH1 0x40 MLOAD DUP2 PUSH4 0xFFFFFFFF AND PUSH1 0xE0 SHL DUP2 MSTORE PUSH1 0x4 ADD PUSH1 0x0 PUSH1 0x40 MLOAD DUP1 DUP4 SUB DUP2 PUSH1 0x0 DUP8 DUP1 EXTCODESIZE ISZERO DUP1 ISZERO PUSH3 0x1666 JUMPI PUSH1 0x0 DUP1 REVERT JUMPDEST POP GAS CALL ISZERO DUP1 ISZERO PUSH3 0x167B JUMPI RETURNDATASIZE PUSH1 0x0 DUP1 RETURNDATACOPY RETURNDATASIZE PUSH1 0x0 REVERT JUMPDEST POP POP POP POP DUP1 PUSH1 0x1 PUSH1 0x1 PUSH1 0xA0 SHL SUB AND PUSH4 0x4F18BB07 PUSH1 0x40 MLOAD DUP2 PUSH4 0xFFFFFFFF AND PUSH1 0xE0 SHL DUP2 MSTORE PUSH1 0x4 ADD PUSH1 0x20 PUSH1 0x40 MLOAD DUP1 DUP4 SUB DUP2 DUP7 DUP1 EXTCODESIZE ISZERO DUP1 ISZERO PUSH3 0x16B9 JUMPI PUSH1 0x0 DUP1 REVERT JUMPDEST POP GAS STATICCALL ISZERO DUP1 ISZERO PUSH3 0x16CE JUMPI RETURNDATASIZE PUSH1 0x0 DUP1 RETURNDATACOPY RETURNDATASIZE PUSH1 0x0 REVERT JUMPDEST POP POP POP POP PUSH1 0x40 MLOAD RETURNDATASIZE PUSH1 0x1F NOT PUSH1 0x1F DUP3 ADD AND DUP3 ADD DUP1 PUSH1 0x40 MSTORE POP DUP2 ADD SWAP1 PUSH3 0x16F4 SWAP2 SWAP1 PUSH3 0x1D11 JUMP JUMPDEST SWAP2 POP POP SWAP1 JUMP JUMPDEST PUSH1 0x60 PUSH2 0x2710 DUP3 LT PUSH3 0x1747 JUMPI PUSH1 0x40 MLOAD PUSH3 0x461BCD PUSH1 0xE5 SHL DUP2 MSTORE PUSH1 0x20 PUSH1 0x4 DUP3 ADD MSTORE PUSH1 0x15 PUSH1 0x24 DUP3 ADD MSTORE PUSH21 0x657863656564206D6178696D756D2072616E646F6D PUSH1 0x58 SHL PUSH1 0x44 DUP3 ADD MSTORE PUSH1 0x64 ADD PUSH3 0x20C JUMP JUMPDEST PUSH2 0x3E7 DUP3 GT ISZERO PUSH3 0x1763 JUMPI PUSH3 0x175D DUP3 PUSH3 0x1882 JUMP JUMPDEST SWAP3 SWAP2 POP POP JUMP JUMPDEST PUSH1 0x63 DUP3 GT ISZERO PUSH3 0x17BB JUMPI PUSH1 0x40 MLOAD DUP1 PUSH1 0x40 ADD PUSH1 0x40 MSTORE DUP1 PUSH1 0x1 DUP2 MSTORE PUSH1 0x20 ADD PUSH1 0x3 PUSH1 0xFC SHL DUP2 MSTORE POP PUSH3 0x1792 DUP4 PUSH3 0x1882 JUMP JUMPDEST PUSH1 0x40 MLOAD PUSH1 0x20 ADD PUSH3 0x17A5 SWAP3 SWAP2 SWAP1 PUSH3 0x1EA0 JUMP JUMPDEST PUSH1 0x40 MLOAD PUSH1 0x20 DUP2 DUP4 SUB SUB DUP2 MSTORE SWAP1 PUSH1 0x40 MSTORE SWAP1 POP SWAP2 SWAP1 POP JUMP JUMPDEST PUSH1 0x9 DUP3 GT ISZERO PUSH3 0x17EB JUMPI PUSH1 0x40 MLOAD DUP1 PUSH1 0x40 ADD PUSH1 0x40 MSTORE DUP1 PUSH1 0x2 DUP2 MSTORE PUSH1 0x20 ADD PUSH2 0x303 PUSH1 0xF4 SHL DUP2 MSTORE POP PUSH3 0x1792 DUP4 PUSH3 0x1882 JUMP JUMPDEST PUSH1 0x40 MLOAD DUP1 PUSH1 0x40 ADD PUSH1 0x40 MSTORE DUP1 PUSH1 0x3 DUP2 MSTORE PUSH1 0x20 ADD PUSH3 0x30303 PUSH1 0xEC SHL DUP2 MSTORE POP PUSH3 0x1792 DUP4 PUSH3 0x1882 JUMP JUMPDEST PUSH1 0x0 DUP2 MLOAD DUP4 MLOAD EQ PUSH3 0x1827 JUMPI POP PUSH1 0x0 PUSH3 0x175D JUMP JUMPDEST DUP2 PUSH1 0x40 MLOAD PUSH1 0x20 ADD PUSH3 0x183A SWAP2 SWAP1 PUSH3 0x1ED3 JUMP JUMPDEST PUSH1 0x40 MLOAD PUSH1 0x20 DUP2 DUP4 SUB SUB DUP2 MSTORE SWAP1 PUSH1 0x40 MSTORE DUP1 MLOAD SWAP1 PUSH1 0x20 ADD KECCAK256 DUP4 PUSH1 0x40 MLOAD PUSH1 0x20 ADD PUSH3 0x1863 SWAP2 SWAP1 PUSH3 0x1ED3 JUMP JUMPDEST PUSH1 0x40 MLOAD PUSH1 0x20 DUP2 DUP4 SUB SUB DUP2 MSTORE SWAP1 PUSH1 0x40 MSTORE DUP1 MLOAD SWAP1 PUSH1 0x20 ADD KECCAK256 EQ SWAP1 POP SWAP3 SWAP2 POP POP JUMP JUMPDEST PUSH1 0x60 DUP2 PUSH3 0x18A7 JUMPI POP POP PUSH1 0x40 DUP1 MLOAD DUP1 DUP3 ADD SWAP1 SWAP2 MSTORE PUSH1 0x1 DUP2 MSTORE PUSH1 0x3 PUSH1 0xFC SHL PUSH1 0x20 DUP3 ADD MSTORE SWAP1 JUMP JUMPDEST DUP2 PUSH1 0x0 JUMPDEST DUP2 ISZERO PUSH3 0x18D7 JUMPI DUP1 PUSH3 0x18BE DUP2 PUSH3 0x21F7 JUMP JUMPDEST SWAP2 POP PUSH3 0x18CF SWAP1 POP PUSH1 0xA DUP4 PUSH3 0x2134 JUMP JUMPDEST SWAP2 POP PUSH3 0x18AB JUMP JUMPDEST PUSH1 0x0 DUP2 PUSH8 0xFFFFFFFFFFFFFFFF DUP2 GT ISZERO PUSH3 0x18F5 JUMPI PUSH3 0x18F5 PUSH3 0x2284 JUMP JUMPDEST PUSH1 0x40 MLOAD SWAP1 DUP1 DUP3 MSTORE DUP1 PUSH1 0x1F ADD PUSH1 0x1F NOT AND PUSH1 0x20 ADD DUP3 ADD PUSH1 0x40 MSTORE DUP1 ISZERO PUSH3 0x1920 JUMPI PUSH1 0x20 DUP3 ADD DUP2 DUP1 CALLDATASIZE DUP4 CALLDATACOPY ADD SWAP1 POP JUMPDEST POP SWAP1 POP JUMPDEST DUP5 ISZERO PUSH3 0x1998 JUMPI PUSH3 0x1938 PUSH1 0x1 DUP4 PUSH3 0x216D JUMP JUMPDEST SWAP2 POP PUSH3 0x1947 PUSH1 0xA DUP7 PUSH3 0x2215 JUMP JUMPDEST PUSH3 0x1954 SWAP1 PUSH1 0x30 PUSH3 0x2119 JUMP JUMPDEST PUSH1 0xF8 SHL DUP2 DUP4 DUP2 MLOAD DUP2 LT PUSH3 0x196C JUMPI PUSH3 0x196C PUSH3 0x226E JUMP JUMPDEST PUSH1 0x20 ADD ADD SWAP1 PUSH1 0x1 PUSH1 0x1 PUSH1 0xF8 SHL SUB NOT AND SWAP1 DUP2 PUSH1 0x0 BYTE SWAP1 MSTORE8 POP PUSH3 0x1990 PUSH1 0xA DUP7 PUSH3 0x2134 JUMP JUMPDEST SWAP5 POP PUSH3 0x1924 JUMP JUMPDEST SWAP5 SWAP4 POP POP POP POP JUMP JUMPDEST DUP3 DUP1 SLOAD PUSH3 0x19AE SWAP1 PUSH3 0x21BA JUMP JUMPDEST SWAP1 PUSH1 0x0 MSTORE PUSH1 0x20 PUSH1 0x0 KECCAK256 SWAP1 PUSH1 0x1F ADD PUSH1 0x20 SWAP1 DIV DUP2 ADD SWAP3 DUP3 PUSH3 0x19D2 JUMPI PUSH1 0x0 DUP6 SSTORE PUSH3 0x1A1D JUMP JUMPDEST DUP3 PUSH1 0x1F LT PUSH3 0x19ED JUMPI DUP1 MLOAD PUSH1 0xFF NOT AND DUP4 DUP1 ADD OR DUP6 SSTORE PUSH3 0x1A1D JUMP JUMPDEST DUP3 DUP1 ADD PUSH1 0x1 ADD DUP6 SSTORE DUP3 ISZERO PUSH3 0x1A1D JUMPI SWAP2 DUP3 ADD JUMPDEST DUP3 DUP2 GT ISZERO PUSH3 0x1A1D JUMPI DUP3 MLOAD DUP3 SSTORE SWAP2 PUSH1 0x20 ADD SWAP2 SWAP1 PUSH1 0x1 ADD SWAP1 PUSH3 0x1A00 JUMP JUMPDEST POP PUSH3 0x1A2B SWAP3 SWAP2 POP PUSH3 0x1B73 JUMP JUMPDEST POP SWAP1 JUMP JUMPDEST DUP3 DUP1 SLOAD DUP3 DUP3 SSTORE SWAP1 PUSH1 0x0 MSTORE PUSH1 0x20 PUSH1 0x0 KECCAK256 SWAP1 DUP2 ADD SWAP3 DUP3 ISZERO PUSH3 0x1A1D JUMPI SWAP2 PUSH1 0x20 MUL DUP3 ADD JUMPDEST DUP3 DUP2 GT ISZERO PUSH3 0x1A1D JUMPI DUP3 MLOAD DUP3 SLOAD PUSH1 0x1 PUSH1 0x1 PUSH1 0xA0 SHL SUB NOT AND PUSH1 0x1 PUSH1 0x1 PUSH1 0xA0 SHL SUB SWAP1 SWAP2 AND OR DUP3 SSTORE PUSH1 0x20 SWAP1 SWAP3 ADD SWAP2 PUSH1 0x1 SWAP1 SWAP2 ADD SWAP1 PUSH3 0x1A50 JUMP JUMPDEST POP DUP1 SLOAD PUSH1 0x0 DUP3 SSTORE SWAP1 PUSH1 0x0 MSTORE PUSH1 0x20 PUSH1 0x0 KECCAK256 SWAP1 DUP2 ADD SWAP1 PUSH3 0x1AA7 SWAP2 SWAP1 PUSH3 0x1B73 JUMP JUMPDEST POP JUMP JUMPDEST POP DUP1 SLOAD PUSH3 0x1AB8 SWAP1 PUSH3 0x21BA JUMP JUMPDEST PUSH1 0x0 DUP3 SSTORE DUP1 PUSH1 0x1F LT PUSH3 0x1AC9 JUMPI POP POP JUMP JUMPDEST PUSH1 0x1F ADD PUSH1 0x20 SWAP1 DIV SWAP1 PUSH1 0x0 MSTORE PUSH1 0x20 PUSH1 0x0 KECCAK256 SWAP1 DUP2 ADD SWAP1 PUSH3 0x1AA7 SWAP2 SWAP1 PUSH3 0x1B73 JUMP JUMPDEST POP DUP1 SLOAD PUSH1 0x0 DUP3 SSTORE PUSH1 0x3 MUL SWAP1 PUSH1 0x0 MSTORE PUSH1 0x20 PUSH1 0x0 KECCAK256 SWAP1 DUP2 ADD SWAP1 PUSH3 0x1AA7 SWAP2 SWAP1 PUSH3 0x1B8A JUMP JUMPDEST PUSH2 0x522 DUP1 PUSH3 0x229B DUP4 CODECOPY ADD SWAP1 JUMP JUMPDEST PUSH1 0x40 MLOAD DUP1 PUSH2 0x100 ADD PUSH1 0x40 MSTORE DUP1 PUSH1 0x0 DUP2 MSTORE PUSH1 0x20 ADD PUSH1 0x0 DUP2 MSTORE PUSH1 0x20 ADD PUSH1 0x0 DUP2 MSTORE PUSH1 0x20 ADD PUSH1 0x0 DUP2 MSTORE PUSH1 0x20 ADD PUSH1 0x60 DUP2 MSTORE PUSH1 0x20 ADD PUSH1 0x0 PUSH1 0x2 DUP2 GT ISZERO PUSH3 0x1B5F JUMPI PUSH3 0x1B5F PUSH3 0x2258 JUMP JUMPDEST DUP2 MSTORE PUSH1 0x0 PUSH1 0x20 DUP3 ADD MSTORE PUSH1 0x60 PUSH1 0x40 SWAP1 SWAP2 ADD MSTORE SWAP1 JUMP JUMPDEST JUMPDEST DUP1 DUP3 GT ISZERO PUSH3 0x1A2B JUMPI PUSH1 0x0 DUP2 SSTORE PUSH1 0x1 ADD PUSH3 0x1B74 JUMP JUMPDEST DUP1 DUP3 GT ISZERO PUSH3 0x1A2B JUMPI DUP1 SLOAD PUSH1 0x1 PUSH1 0x1 PUSH1 0xA0 SHL SUB NOT AND DUP2 SSTORE PUSH1 0x0 PUSH3 0x1BB2 PUSH1 0x1 DUP4 ADD DUP3 PUSH3 0x1AAA JUMP JUMPDEST POP PUSH1 0x0 PUSH1 0x2 DUP3 ADD SSTORE PUSH1 0x3 ADD PUSH3 0x1B8A JUMP JUMPDEST PUSH1 0x0 DUP3 PUSH1 0x1F DUP4 ADD SLT PUSH3 0x1BD5 JUMPI PUSH1 0x0 DUP1 REVERT JUMPDEST DUP2 CALLDATALOAD PUSH8 0xFFFFFFFFFFFFFFFF DUP1 DUP3 GT ISZERO PUSH3 0x1BF3 JUMPI PUSH3 0x1BF3 PUSH3 0x2284 JUMP JUMPDEST PUSH1 0x40 MLOAD PUSH1 0x1F DUP4 ADD PUSH1 0x1F NOT SWAP1 DUP2 AND PUSH1 0x3F ADD AND DUP2 ADD SWAP1 DUP3 DUP3 GT DUP2 DUP4 LT OR ISZERO PUSH3 0x1C1E JUMPI PUSH3 0x1C1E PUSH3 0x2284 JUMP JUMPDEST DUP2 PUSH1 0x40 MSTORE DUP4 DUP2 MSTORE DUP7 PUSH1 0x20 DUP6 DUP9 ADD ADD GT ISZERO PUSH3 0x1C38 JUMPI PUSH1 0x0 DUP1 REVERT JUMPDEST DUP4 PUSH1 0x20 DUP8 ADD PUSH1 0x20 DUP4 ADD CALLDATACOPY PUSH1 0x0 PUSH1 0x20 DUP6 DUP4 ADD ADD MSTORE DUP1 SWAP5 POP POP POP POP POP SWAP3 SWAP2 POP POP JUMP JUMPDEST PUSH1 0x0 PUSH1 0x20 DUP3 DUP5 SUB SLT ISZERO PUSH3 0x1C6B JUMPI PUSH1 0x0 DUP1 REVERT JUMPDEST DUP2 CALLDATALOAD PUSH1 0x1 PUSH1 0x1 PUSH1 0xA0 SHL SUB DUP2 AND DUP2 EQ PUSH3 0x1C83 JUMPI PUSH1 0x0 DUP1 REVERT JUMPDEST SWAP4 SWAP3 POP POP POP JUMP JUMPDEST PUSH1 0x0 PUSH1 0x20 DUP3 DUP5 SUB SLT ISZERO PUSH3 0x1C9D JUMPI PUSH1 0x0 DUP1 REVERT JUMPDEST DUP2 MLOAD DUP1 ISZERO ISZERO DUP2 EQ PUSH3 0x1C83 JUMPI PUSH1 0x0 DUP1 REVERT JUMPDEST PUSH1 0x0 DUP1 PUSH1 0x40 DUP4 DUP6 SUB SLT ISZERO PUSH3 0x1CC2 JUMPI PUSH1 0x0 DUP1 REVERT JUMPDEST DUP3 CALLDATALOAD PUSH8 0xFFFFFFFFFFFFFFFF DUP2 GT ISZERO PUSH3 0x1CDA JUMPI PUSH1 0x0 DUP1 REVERT JUMPDEST PUSH3 0x1CE8 DUP6 DUP3 DUP7 ADD PUSH3 0x1BC3 JUMP JUMPDEST SWAP6 PUSH1 0x20 SWAP5 SWAP1 SWAP5 ADD CALLDATALOAD SWAP5 POP POP POP POP JUMP JUMPDEST PUSH1 0x0 PUSH1 0x20 DUP3 DUP5 SUB SLT ISZERO PUSH3 0x1D0A JUMPI PUSH1 0x0 DUP1 REVERT JUMPDEST POP CALLDATALOAD SWAP2 SWAP1 POP JUMP JUMPDEST PUSH1 0x0 PUSH1 0x20 DUP3 DUP5 SUB SLT ISZERO PUSH3 0x1D24 JUMPI PUSH1 0x0 DUP1 REVERT JUMPDEST POP MLOAD SWAP2 SWAP1 POP JUMP JUMPDEST PUSH1 0x0 DUP1 PUSH1 0x40 DUP4 DUP6 SUB SLT ISZERO PUSH3 0x1D3F JUMPI PUSH1 0x0 DUP1 REVERT JUMPDEST DUP3 CALLDATALOAD SWAP2 POP PUSH1 0x20 DUP4 ADD CALLDATALOAD PUSH8 0xFFFFFFFFFFFFFFFF DUP2 GT ISZERO PUSH3 0x1D5E JUMPI PUSH1 0x0 DUP1 REVERT JUMPDEST PUSH3 0x1D6C DUP6 DUP3 DUP7 ADD PUSH3 0x1BC3 JUMP JUMPDEST SWAP2 POP POP SWAP3 POP SWAP3 SWAP1 POP JUMP JUMPDEST PUSH1 0x0 PUSH1 0x20 DUP3 DUP5 SUB SLT ISZERO PUSH3 0x1D89 JUMPI PUSH1 0x0 DUP1 REVERT JUMPDEST DUP2 CALLDATALOAD PUSH8 0xFFFFFFFFFFFFFFFF DUP2 AND DUP2 EQ PUSH3 0x1C83 JUMPI PUSH1 0x0 DUP1 REVERT JUMPDEST PUSH1 0x0 DUP3 DUP3 MLOAD DUP1 DUP6 MSTORE PUSH1 0x20 DUP1 DUP7 ADD SWAP6 POP DUP1 DUP3 PUSH1 0x5 SHL DUP5 ADD ADD DUP2 DUP7 ADD PUSH1 0x0 JUMPDEST DUP5 DUP2 LT ISZERO PUSH3 0x1E1D JUMPI DUP6 DUP4 SUB PUSH1 0x1F NOT ADD DUP10 MSTORE DUP2 MLOAD DUP1 MLOAD PUSH1 0x1 PUSH1 0x1 PUSH1 0xA0 SHL SUB AND DUP5 MSTORE DUP5 DUP2 ADD MLOAD PUSH1 0x60 DUP7 DUP7 ADD DUP2 SWAP1 MSTORE SWAP1 PUSH3 0x1DFB DUP3 DUP8 ADD DUP3 PUSH3 0x1E2A JUMP JUMPDEST PUSH1 0x40 SWAP4 DUP5 ADD MLOAD SWAP7 SWAP1 SWAP4 ADD SWAP6 SWAP1 SWAP6 MSTORE POP SWAP9 DUP5 ADD SWAP9 SWAP3 POP SWAP1 DUP4 ADD SWAP1 PUSH1 0x1 ADD PUSH3 0x1DBF JUMP JUMPDEST POP SWAP1 SWAP8 SWAP7 POP POP POP POP POP POP POP JUMP JUMPDEST PUSH1 0x0 DUP2 MLOAD DUP1 DUP5 MSTORE PUSH3 0x1E44 DUP2 PUSH1 0x20 DUP7 ADD PUSH1 0x20 DUP7 ADD PUSH3 0x2187 JUMP JUMPDEST PUSH1 0x1F ADD PUSH1 0x1F NOT AND SWAP3 SWAP1 SWAP3 ADD PUSH1 0x20 ADD SWAP3 SWAP2 POP POP JUMP JUMPDEST PUSH1 0x0 DUP2 DUP4 SLOAD DUP4 SWAP2 POP DUP5 PUSH1 0x0 MSTORE PUSH1 0x20 DUP1 PUSH1 0x0 KECCAK256 PUSH1 0x0 JUMPDEST DUP4 DUP2 LT ISZERO PUSH3 0x1E94 JUMPI DUP2 SLOAD PUSH1 0x1 PUSH1 0x1 PUSH1 0xA0 SHL SUB AND DUP6 MSTORE SWAP4 DUP3 ADD SWAP4 PUSH1 0x1 SWAP2 DUP3 ADD SWAP2 ADD PUSH3 0x1E6D JUMP JUMPDEST POP SWAP3 SWAP7 SWAP6 POP POP POP POP POP POP JUMP JUMPDEST PUSH1 0x0 DUP4 MLOAD PUSH3 0x1EB4 DUP2 DUP5 PUSH1 0x20 DUP9 ADD PUSH3 0x2187 JUMP JUMPDEST DUP4 MLOAD SWAP1 DUP4 ADD SWAP1 PUSH3 0x1ECA DUP2 DUP4 PUSH1 0x20 DUP9 ADD PUSH3 0x2187 JUMP JUMPDEST ADD SWAP5 SWAP4 POP POP POP POP JUMP JUMPDEST PUSH1 0x0 DUP3 MLOAD PUSH3 0x1EE7 DUP2 DUP5 PUSH1 0x20 DUP8 ADD PUSH3 0x2187 JUMP JUMPDEST SWAP2 SWAP1 SWAP2 ADD SWAP3 SWAP2 POP POP JUMP JUMPDEST PUSH1 0x0 DUP1 DUP4 SLOAD DUP2 PUSH1 0x1 DUP3 DUP2 SHR SWAP2 POP DUP1 DUP4 AND DUP1 PUSH3 0x1F0E JUMPI PUSH1 0x7F DUP4 AND SWAP3 POP JUMPDEST PUSH1 0x20 DUP1 DUP5 LT DUP3 EQ ISZERO PUSH3 0x1F2F JUMPI PUSH4 0x4E487B71 PUSH1 0xE0 SHL DUP7 MSTORE PUSH1 0x22 PUSH1 0x4 MSTORE PUSH1 0x24 DUP7 REVERT JUMPDEST DUP2 DUP1 ISZERO PUSH3 0x1F46 JUMPI PUSH1 0x1 DUP2 EQ PUSH3 0x1F58 JUMPI PUSH3 0x1F87 JUMP JUMPDEST PUSH1 0xFF NOT DUP7 AND DUP10 MSTORE DUP5 DUP10 ADD SWAP7 POP PUSH3 0x1F87 JUMP JUMPDEST PUSH1 0x0 DUP11 DUP2 MSTORE PUSH1 0x20 SWAP1 KECCAK256 PUSH1 0x0 JUMPDEST DUP7 DUP2 LT ISZERO PUSH3 0x1F7F JUMPI DUP2 SLOAD DUP12 DUP3 ADD MSTORE SWAP1 DUP6 ADD SWAP1 DUP4 ADD PUSH3 0x1F64 JUMP JUMPDEST POP POP DUP5 DUP10 ADD SWAP7 POP JUMPDEST POP SWAP5 SWAP9 SWAP8 POP POP POP POP POP POP POP POP JUMP JUMPDEST PUSH1 0x1 PUSH1 0x1 PUSH1 0xA0 SHL SUB DUP5 AND DUP2 MSTORE PUSH1 0x60 PUSH1 0x20 DUP3 ADD DUP2 SWAP1 MSTORE PUSH1 0x0 SWAP1 PUSH3 0x1FBB SWAP1 DUP4 ADD DUP6 PUSH3 0x1E2A JUMP JUMPDEST SWAP1 POP DUP3 PUSH1 0x40 DUP4 ADD MSTORE SWAP5 SWAP4 POP POP POP POP JUMP JUMPDEST PUSH1 0x40 DUP2 MSTORE PUSH1 0x0 PUSH3 0x1FE0 PUSH1 0x40 DUP4 ADD DUP6 PUSH3 0x1E2A JUMP JUMPDEST DUP3 DUP2 SUB PUSH1 0x20 DUP5 DUP2 ADD SWAP2 SWAP1 SWAP2 MSTORE DUP5 MLOAD DUP1 DUP4 MSTORE DUP6 DUP3 ADD SWAP3 DUP3 ADD SWAP1 PUSH1 0x0 JUMPDEST DUP2 DUP2 LT ISZERO PUSH3 0x1E1D JUMPI DUP5 MLOAD PUSH1 0x1 PUSH1 0x1 PUSH1 0xA0 SHL SUB AND DUP4 MSTORE SWAP4 DUP4 ADD SWAP4 SWAP2 DUP4 ADD SWAP2 PUSH1 0x1 ADD PUSH3 0x1FFB JUMP JUMPDEST PUSH1 0x20 DUP1 DUP3 MSTORE PUSH1 0x11 SWAP1 DUP3 ADD MSTORE PUSH17 0x3CB7BA9030B932903737BA1030B236B4B7 PUSH1 0x79 SHL PUSH1 0x40 DUP3 ADD MSTORE PUSH1 0x60 ADD SWAP1 JUMP JUMPDEST PUSH1 0x20 DUP2 MSTORE DUP2 MLOAD PUSH1 0x20 DUP3 ADD MSTORE PUSH1 0x20 DUP3 ADD MLOAD PUSH1 0x40 DUP3 ADD MSTORE PUSH1 0x40 DUP3 ADD MLOAD PUSH1 0x60 DUP3 ADD MSTORE PUSH1 0x60 DUP3 ADD MLOAD PUSH1 0x80 DUP3 ADD MSTORE PUSH1 0x0 PUSH1 0x80 DUP4 ADD MLOAD PUSH2 0x100 DUP1 PUSH1 0xA0 DUP6 ADD MSTORE PUSH3 0x2096 PUSH2 0x120 DUP6 ADD DUP4 PUSH3 0x1E2A JUMP JUMPDEST SWAP2 POP PUSH1 0xA0 DUP6 ADD MLOAD PUSH1 0x3 DUP2 LT PUSH3 0x20BC JUMPI PUSH4 0x4E487B71 PUSH1 0xE0 SHL PUSH1 0x0 MSTORE PUSH1 0x21 PUSH1 0x4 MSTORE PUSH1 0x24 PUSH1 0x0 REVERT JUMPDEST DUP1 PUSH1 0xC0 DUP7 ADD MSTORE POP PUSH1 0xC0 DUP6 ADD MLOAD PUSH3 0x20D7 PUSH1 0xE0 DUP7 ADD DUP3 ISZERO ISZERO SWAP1 MSTORE JUMP JUMPDEST POP PUSH1 0xE0 DUP6 ADD MLOAD DUP5 DUP4 SUB PUSH1 0x1F NOT ADD DUP3 DUP7 ADD MSTORE PUSH3 0x20F4 DUP4 DUP3 PUSH3 0x1DA2 JUMP JUMPDEST SWAP7 SWAP6 POP POP POP POP POP POP JUMP JUMPDEST DUP3 DUP2 MSTORE PUSH1 0x40 PUSH1 0x20 DUP3 ADD MSTORE PUSH1 0x0 PUSH3 0x1998 PUSH1 0x40 DUP4 ADD DUP5 PUSH3 0x1E2A JUMP JUMPDEST PUSH1 0x0 DUP3 NOT DUP3 GT ISZERO PUSH3 0x212F JUMPI PUSH3 0x212F PUSH3 0x222C JUMP JUMPDEST POP ADD SWAP1 JUMP JUMPDEST PUSH1 0x0 DUP3 PUSH3 0x2146 JUMPI PUSH3 0x2146 PUSH3 0x2242 JUMP JUMPDEST POP DIV SWAP1 JUMP JUMPDEST PUSH1 0x0 DUP2 PUSH1 0x0 NOT DIV DUP4 GT DUP3 ISZERO ISZERO AND ISZERO PUSH3 0x2168 JUMPI PUSH3 0x2168 PUSH3 0x222C JUMP JUMPDEST POP MUL SWAP1 JUMP JUMPDEST PUSH1 0x0 DUP3 DUP3 LT ISZERO PUSH3 0x2182 JUMPI PUSH3 0x2182 PUSH3 0x222C JUMP JUMPDEST POP SUB SWAP1 JUMP JUMPDEST PUSH1 0x0 JUMPDEST DUP4 DUP2 LT ISZERO PUSH3 0x21A4 JUMPI DUP2 DUP2 ADD MLOAD DUP4 DUP3 ADD MSTORE PUSH1 0x20 ADD PUSH3 0x218A JUMP JUMPDEST DUP4 DUP2 GT ISZERO PUSH3 0x21B4 JUMPI PUSH1 0x0 DUP5 DUP5 ADD MSTORE JUMPDEST POP POP POP POP JUMP JUMPDEST PUSH1 0x1 DUP2 DUP2 SHR SWAP1 DUP3 AND DUP1 PUSH3 0x21CF JUMPI PUSH1 0x7F DUP3 AND SWAP2 POP JUMPDEST PUSH1 0x20 DUP3 LT DUP2 EQ ISZERO PUSH3 0x21F1 JUMPI PUSH4 0x4E487B71 PUSH1 0xE0 SHL PUSH1 0x0 MSTORE PUSH1 0x22 PUSH1 0x4 MSTORE PUSH1 0x24 PUSH1 0x0 REVERT JUMPDEST POP SWAP2 SWAP1 POP JUMP JUMPDEST PUSH1 0x0 PUSH1 0x0 NOT DUP3 EQ ISZERO PUSH3 0x220E JUMPI PUSH3 0x220E PUSH3 0x222C JUMP JUMPDEST POP PUSH1 0x1 ADD SWAP1 JUMP JUMPDEST PUSH1 0x0 DUP3 PUSH3 0x2227 JUMPI PUSH3 0x2227 PUSH3 0x2242 JUMP JUMPDEST POP MOD SWAP1 JUMP JUMPDEST PUSH4 0x4E487B71 PUSH1 0xE0 SHL PUSH1 0x0 MSTORE PUSH1 0x11 PUSH1 0x4 MSTORE PUSH1 0x24 PUSH1 0x0 REVERT JUMPDEST PUSH4 0x4E487B71 PUSH1 0xE0 SHL PUSH1 0x0 MSTORE PUSH1 0x12 PUSH1 0x4 MSTORE PUSH1 0x24 PUSH1 0x0 REVERT JUMPDEST PUSH4 0x4E487B71 PUSH1 0xE0 SHL PUSH1 0x0 MSTORE PUSH1 0x21 PUSH1 0x4 MSTORE PUSH1 0x24 PUSH1 0x0 REVERT JUMPDEST PUSH4 0x4E487B71 PUSH1 0xE0 SHL PUSH1 0x0 MSTORE PUSH1 0x32 PUSH1 0x4 MSTORE PUSH1 0x24 PUSH1 0x0 REVERT JUMPDEST PUSH4 0x4E487B71 PUSH1 0xE0 SHL PUSH1 0x0 MSTORE PUSH1 0x41 PUSH1 0x4 MSTORE PUSH1 0x24 PUSH1 0x0 REVERT INVALID PUSH1 0xA0 PUSH1 0x40 MSTORE PUSH1 0x1 DUP1 SLOAD PUSH1 0x1 PUSH1 0x1 PUSH1 0xA0 SHL SUB NOT AND PUSH20 0x6168499C0CFFCACD319C818142124B7A15E857AB OR SWAP1 SSTORE PUSH32 0xD89B2BF150E3B9E13446986E571FB9CAB24B13CEA0A43EA20A6049A85CC807CC PUSH1 0x2 SSTORE PUSH1 0x3 DUP1 SLOAD PUSH7 0x10003000186A0 PUSH1 0x1 PUSH1 0x1 PUSH1 0x50 SHL SUB NOT SWAP1 SWAP2 AND OR SWAP1 SSTORE CALLVALUE DUP1 ISZERO PUSH2 0x75 JUMPI PUSH1 0x0 DUP1 REVERT JUMPDEST POP PUSH1 0x40 MLOAD PUSH2 0x522 CODESIZE SUB DUP1 PUSH2 0x522 DUP4 CODECOPY DUP2 ADD PUSH1 0x40 DUP2 SWAP1 MSTORE PUSH2 0x94 SWAP2 PUSH2 0xF6 JUMP JUMPDEST PUSH1 0x1 SLOAD PUSH1 0x1 PUSH1 0x1 PUSH1 0x60 SHL SUB NOT PUSH1 0x60 DUP3 SWAP1 SHL AND PUSH1 0x80 MSTORE PUSH1 0x0 DUP1 SLOAD PUSH1 0x6 DUP1 SLOAD PUSH1 0x1 PUSH1 0x1 PUSH1 0xA0 SHL SUB NOT AND CALLER OR SWAP1 SSTORE PUSH1 0x1 PUSH1 0x1 PUSH1 0x40 SHL SUB SWAP1 SWAP4 AND PUSH1 0x1 PUSH1 0xA0 SHL MUL PUSH1 0x1 PUSH1 0x1 PUSH1 0xE0 SHL SUB NOT SWAP1 SWAP4 AND PUSH1 0x1 PUSH1 0x1 PUSH1 0xA0 SHL SUB SWAP1 SWAP3 AND SWAP2 SWAP1 SWAP2 OR SWAP2 SWAP1 SWAP2 OR SWAP1 SSTORE PUSH2 0x126 JUMP JUMPDEST PUSH1 0x0 PUSH1 0x20 DUP3 DUP5 SUB SLT ISZERO PUSH2 0x108 JUMPI PUSH1 0x0 DUP1 REVERT JUMPDEST DUP2 MLOAD PUSH1 0x1 PUSH1 0x1 PUSH1 0x40 SHL SUB DUP2 AND DUP2 EQ PUSH2 0x11F JUMPI PUSH1 0x0 DUP1 REVERT JUMPDEST SWAP4 SWAP3 POP POP POP JUMP JUMPDEST PUSH1 0x80 MLOAD PUSH1 0x60 SHR PUSH2 0x3D8 PUSH2 0x14A PUSH1 0x0 CODECOPY PUSH1 0x0 DUP2 DUP2 PUSH1 0xD4 ADD MSTORE PUSH2 0x116 ADD MSTORE PUSH2 0x3D8 PUSH1 0x0 RETURN INVALID PUSH1 0x80 PUSH1 0x40 MSTORE CALLVALUE DUP1 ISZERO PUSH2 0x10 JUMPI PUSH1 0x0 DUP1 REVERT JUMPDEST POP PUSH1 0x4 CALLDATASIZE LT PUSH2 0x57 JUMPI PUSH1 0x0 CALLDATALOAD PUSH1 0xE0 SHR DUP1 PUSH4 0x1FE543E3 EQ PUSH2 0x5C JUMPI DUP1 PUSH4 0x4F18BB07 EQ PUSH2 0x71 JUMPI DUP1 PUSH4 0xE0C86289 EQ PUSH2 0x8D JUMPI DUP1 PUSH4 0xE3978240 EQ PUSH2 0x95 JUMPI DUP1 PUSH4 0xE89E106A EQ PUSH2 0xC0 JUMPI JUMPDEST PUSH1 0x0 DUP1 REVERT JUMPDEST PUSH2 0x6F PUSH2 0x6A CALLDATASIZE PUSH1 0x4 PUSH2 0x283 JUMP JUMPDEST PUSH2 0xC9 JUMP JUMPDEST STOP JUMPDEST PUSH2 0x7A PUSH1 0x4 SLOAD DUP2 JUMP JUMPDEST PUSH1 0x40 MLOAD SWAP1 DUP2 MSTORE PUSH1 0x20 ADD JUMPDEST PUSH1 0x40 MLOAD DUP1 SWAP2 SUB SWAP1 RETURN JUMPDEST PUSH2 0x6F PUSH2 0x155 JUMP JUMPDEST PUSH1 0x6 SLOAD PUSH2 0xA8 SWAP1 PUSH1 0x1 PUSH1 0x1 PUSH1 0xA0 SHL SUB AND DUP2 JUMP JUMPDEST PUSH1 0x40 MLOAD PUSH1 0x1 PUSH1 0x1 PUSH1 0xA0 SHL SUB SWAP1 SWAP2 AND DUP2 MSTORE PUSH1 0x20 ADD PUSH2 0x84 JUMP JUMPDEST PUSH2 0x7A PUSH1 0x5 SLOAD DUP2 JUMP JUMPDEST CALLER PUSH1 0x1 PUSH1 0x1 PUSH1 0xA0 SHL SUB PUSH32 0x0 AND EQ PUSH2 0x147 JUMPI PUSH1 0x40 MLOAD PUSH4 0x73E64FD PUSH1 0xE2 SHL DUP2 MSTORE CALLER PUSH1 0x4 DUP3 ADD MSTORE PUSH1 0x1 PUSH1 0x1 PUSH1 0xA0 SHL SUB PUSH32 0x0 AND PUSH1 0x24 DUP3 ADD MSTORE PUSH1 0x44 ADD PUSH1 0x40 MLOAD DUP1 SWAP2 SUB SWAP1 REVERT JUMPDEST PUSH2 0x151 DUP3 DUP3 PUSH2 0x23B JUMP JUMPDEST POP POP JUMP JUMPDEST PUSH1 0x6 SLOAD PUSH1 0x1 PUSH1 0x1 PUSH1 0xA0 SHL SUB AND CALLER EQ PUSH2 0x16C JUMPI PUSH1 0x0 DUP1 REVERT JUMPDEST PUSH1 0x0 SLOAD PUSH1 0x2 SLOAD PUSH1 0x3 SLOAD PUSH1 0x40 MLOAD PUSH4 0x5D3B1D3 PUSH1 0xE4 SHL DUP2 MSTORE PUSH1 0x4 DUP2 ADD SWAP3 SWAP1 SWAP3 MSTORE PUSH1 0x1 PUSH1 0xA0 SHL DUP4 DIV PUSH8 0xFFFFFFFFFFFFFFFF AND PUSH1 0x24 DUP4 ADD MSTORE PUSH5 0x100000000 DUP2 DIV PUSH2 0xFFFF AND PUSH1 0x44 DUP4 ADD MSTORE PUSH4 0xFFFFFFFF DUP1 DUP3 AND PUSH1 0x64 DUP5 ADD MSTORE PUSH7 0x1000000000000 SWAP1 SWAP2 DIV AND PUSH1 0x84 DUP3 ADD MSTORE PUSH1 0x1 PUSH1 0x1 PUSH1 0xA0 SHL SUB SWAP1 SWAP2 AND SWAP1 PUSH4 0x5D3B1D30 SWAP1 PUSH1 0xA4 ADD PUSH1 0x20 PUSH1 0x40 MLOAD DUP1 DUP4 SUB DUP2 PUSH1 0x0 DUP8 DUP1 EXTCODESIZE ISZERO DUP1 ISZERO PUSH2 0x1FE JUMPI PUSH1 0x0 DUP1 REVERT JUMPDEST POP GAS CALL ISZERO DUP1 ISZERO PUSH2 0x212 JUMPI RETURNDATASIZE PUSH1 0x0 DUP1 RETURNDATACOPY RETURNDATASIZE PUSH1 0x0 REVERT JUMPDEST POP POP POP POP PUSH1 0x40 MLOAD RETURNDATASIZE PUSH1 0x1F NOT PUSH1 0x1F DUP3 ADD AND DUP3 ADD DUP1 PUSH1 0x40 MSTORE POP DUP2 ADD SWAP1 PUSH2 0x236 SWAP2 SWAP1 PUSH2 0x26A JUMP JUMPDEST PUSH1 0x5 SSTORE JUMP JUMPDEST PUSH2 0x2710 DUP2 PUSH1 0x0 DUP2 MLOAD DUP2 LT PUSH2 0x251 JUMPI PUSH2 0x251 PUSH2 0x376 JUMP JUMPDEST PUSH1 0x20 MUL PUSH1 0x20 ADD ADD MLOAD PUSH2 0x263 SWAP2 SWAP1 PUSH2 0x354 JUMP JUMPDEST PUSH1 0x4 SSTORE POP POP JUMP JUMPDEST PUSH1 0x0 PUSH1 0x20 DUP3 DUP5 SUB SLT ISZERO PUSH2 0x27C JUMPI PUSH1 0x0 DUP1 REVERT JUMPDEST POP MLOAD SWAP2 SWAP1 POP JUMP JUMPDEST PUSH1 0x0 DUP1 PUSH1 0x40 DUP4 DUP6 SUB SLT ISZERO PUSH2 0x296 JUMPI PUSH1 0x0 DUP1 REVERT JUMPDEST DUP3 CALLDATALOAD SWAP2 POP PUSH1 0x20 DUP1 DUP5 ADD CALLDATALOAD PUSH8 0xFFFFFFFFFFFFFFFF DUP1 DUP3 GT ISZERO PUSH2 0x2B6 JUMPI PUSH1 0x0 DUP1 REVERT JUMPDEST DUP2 DUP7 ADD SWAP2 POP DUP7 PUSH1 0x1F DUP4 ADD SLT PUSH2 0x2CA JUMPI PUSH1 0x0 DUP1 REVERT JUMPDEST DUP2 CALLDATALOAD DUP2 DUP2 GT ISZERO PUSH2 0x2DC JUMPI PUSH2 0x2DC PUSH2 0x38C JUMP JUMPDEST DUP1 PUSH1 0x5 SHL PUSH1 0x40 MLOAD PUSH1 0x1F NOT PUSH1 0x3F DUP4 ADD AND DUP2 ADD DUP2 DUP2 LT DUP6 DUP3 GT OR ISZERO PUSH2 0x301 JUMPI PUSH2 0x301 PUSH2 0x38C JUMP JUMPDEST PUSH1 0x40 MSTORE DUP3 DUP2 MSTORE DUP6 DUP2 ADD SWAP4 POP DUP5 DUP7 ADD DUP3 DUP7 ADD DUP8 ADD DUP12 LT ISZERO PUSH2 0x320 JUMPI PUSH1 0x0 DUP1 REVERT JUMPDEST PUSH1 0x0 SWAP6 POP JUMPDEST DUP4 DUP7 LT ISZERO PUSH2 0x343 JUMPI DUP1 CALLDATALOAD DUP6 MSTORE PUSH1 0x1 SWAP6 SWAP1 SWAP6 ADD SWAP5 SWAP4 DUP7 ADD SWAP4 DUP7 ADD PUSH2 0x325 JUMP JUMPDEST POP DUP1 SWAP7 POP POP POP POP POP POP POP SWAP3 POP SWAP3 SWAP1 POP JUMP JUMPDEST PUSH1 0x0 DUP3 PUSH2 0x371 JUMPI PUSH4 0x4E487B71 PUSH1 0xE0 SHL PUSH1 0x0 MSTORE PUSH1 0x12 PUSH1 0x4 MSTORE PUSH1 0x24 PUSH1 0x0 REVERT JUMPDEST POP MOD SWAP1 JUMP JUMPDEST PUSH4 0x4E487B71 PUSH1 0xE0 SHL PUSH1 0x0 MSTORE PUSH1 0x32 PUSH1 0x4 MSTORE PUSH1 0x24 PUSH1 0x0 REVERT JUMPDEST PUSH4 0x4E487B71 PUSH1 0xE0 SHL PUSH1 0x0 MSTORE PUSH1 0x41 PUSH1 0x4 MSTORE PUSH1 0x24 PUSH1 0x0 REVERT INVALID LOG2 PUSH5 0x6970667358 0x22 SLT KECCAK256 SWAP10 SWAP7 GASLIMIT 0xE6 PUSH2 0x184D SHL 0xDF CALLER DUP10 0xD9 0x2C NOT 0xCC SWAP8 DUP4 0xE5 0xC5 0xAE PUSH9 0x3D0BAB635E9F0DF1B6 STATICCALL CALL PUSH5 0x736F6C6343 STOP ADDMOD MOD STOP CALLER LOG2 PUSH5 0x6970667358 0x22 SLT KECCAK256 LT PUSH1 0x89 0x2E SWAP10 PUSH9 0x1932C5093B9B9D0B62 COINBASE LT POP 0xAD PUSH28 0x24DDEA03A55D853989112DDD64736F6C634300080600330000000000 "
        },
        "methodIdentifiers": {
          "VRF()": "a126285b",
          "admin()": "f851a440",
          "buy(string,uint256)": "0ca5c504",
          "changeAdmin(address)": "8f283970",
          "closeDraw()": "a0eb5570",
          "drawPrize()": "501335f7",
          "instantiateVRF(uint64)": "c0080276",
          "queryActivityInfo()": "f7efdc0a",
          "queryPrizeHistory(uint256)": "c5b6ca5d",
          "startActivity(uint256,string)": "64086500"
        }
      }
    }
  }
}