{
  "_format": "hh-sol-artifact-1",
  "contractName": "Lottery",
  "sourceName": "contracts/Lottery.sol",
  "abi": [
    {
      "inputs": [],
      "stateMutability": "nonpayable",
      "type": "constructor"
    },
    {
      "anonymous": false,
      "inputs": [
        {
          "indexed": false,
          "internalType": "address",
          "name": "player",
          "type": "address"
        },
        {
          "indexed": false,
          "internalType": "string",
          "name": "number",
          "type": "string"
        },
        {
          "indexed": false,
          "internalType": "uint256",
          "name": "amounts",
          "type": "uint256"
        }
      ],
      "name": "Buy",
      "type": "event"
    },
    {
      "anonymous": false,
      "inputs": [
        {
          "indexed": false,
          "internalType": "uint256",
          "name": "round",
          "type": "uint256"
        },
        {
          "indexed": true,
          "internalType": "string",
          "name": "number",
          "type": "string"
        },
        {
          "indexed": true,
          "internalType": "address[]",
          "name": "winners",
          "type": "address[]"
        }
      ],
      "name": "DrawPrize",
      "type": "event"
    },
    {
      "anonymous": false,
      "inputs": [
        {
          "indexed": false,
          "internalType": "uint256",
          "name": "time",
          "type": "uint256"
        },
        {
          "indexed": false,
          "internalType": "string",
          "name": "unit",
          "type": "string"
        }
      ],
      "name": "Start",
      "type": "event"
    },
    {
      "inputs": [],
      "name": "VRF",
      "outputs": [
        {
          "internalType": "address",
          "name": "",
          "type": "address"
        }
      ],
      "stateMutability": "view",
      "type": "function"
    },
    {
      "inputs": [],
      "name": "admin",
      "outputs": [
        {
          "internalType": "address",
          "name": "",
          "type": "address"
        }
      ],
      "stateMutability": "view",
      "type": "function"
    },
    {
      "inputs": [
        {
          "internalType": "string",
          "name": "number",
          "type": "string"
        },
        {
          "internalType": "uint256",
          "name": "amounts",
          "type": "uint256"
        }
      ],
      "name": "buy",
      "outputs": [],
      "stateMutability": "nonpayable",
      "type": "function"
    },
    {
      "inputs": [
        {
          "internalType": "address",
          "name": "_newAdmin",
          "type": "address"
        }
      ],
      "name": "changeAdmin",
      "outputs": [],
      "stateMutability": "nonpayable",
      "type": "function"
    },
    {
      "inputs": [],
      "name": "closeDraw",
      "outputs": [],
      "stateMutability": "nonpayable",
      "type": "function"
    },
    {
      "inputs": [],
      "name": "drawPrize",
      "outputs": [
        {
          "internalType": "bool",
          "name": "",
          "type": "bool"
        }
      ],
      "stateMutability": "nonpayable",
      "type": "function"
    },
    {
      "inputs": [
        {
          "internalType": "uint64",
          "name": "subscriptionID",
          "type": "uint64"
        }
      ],
      "name": "instantiateVRF",
      "outputs": [],
      "stateMutability": "nonpayable",
      "type": "function"
    },
    {
      "inputs": [],
      "name": "queryActivityInfo",
      "outputs": [
        {
          "components": [
            {
              "internalType": "uint256",
              "name": "round",
              "type": "uint256"
            },
            {
              "internalType": "uint256",
              "name": "poolBalance",
              "type": "uint256"
            },
            {
              "internalType": "uint256",
              "name": "totalAmounts",
              "type": "uint256"
            },
            {
              "internalType": "uint256",
              "name": "time",
              "type": "uint256"
            },
            {
              "internalType": "string",
              "name": "number",
              "type": "string"
            },
            {
              "internalType": "enum Lottery.Lottery_State",
              "name": "state",
              "type": "uint8"
            },
            {
              "internalType": "bool",
              "name": "isAlreadyDistributed",
              "type": "bool"
            },
            {
              "components": [
                {
                  "internalType": "address",
                  "name": "player",
                  "type": "address"
                },
                {
                  "internalType": "string",
                  "name": "number",
                  "type": "string"
                },
                {
                  "internalType": "uint256",
                  "name": "amounts",
                  "type": "uint256"
                }
              ],
              "internalType": "struct Lottery.Order[]",
              "name": "participantRecord",
              "type": "tuple[]"
            }
          ],
          "internalType": "struct Lottery.Activity",
          "name": "",
          "type": "tuple"
        }
      ],
      "stateMutability": "view",
      "type": "function"
    },
    {
      "inputs": [
        {
          "internalType": "uint256",
          "name": "round",
          "type": "uint256"
        }
      ],
      "name": "queryPrizeHistory",
      "outputs": [
        {
          "internalType": "string",
          "name": "number",
          "type": "string"
        },
        {
          "internalType": "address[]",
          "name": "winners",
          "type": "address[]"
        }
      ],
      "stateMutability": "view",
      "type": "function"
    },
    {
      "inputs": [
        {
          "internalType": "uint256",
          "name": "time",
          "type": "uint256"
        },
        {
          "internalType": "string",
          "name": "unit",
          "type": "string"
        }
      ],
      "name": "startActivity",
      "outputs": [],
      "stateMutability": "nonpayable",
      "type": "function"
    }
  ],
  "bytecode": "0x608060405234801561001057600080fd5b50600180546001600160a01b031916331790556127f2806100326000396000f3fe60806040523480156200001157600080fd5b5060043610620000ab5760003560e01c8063a126285b116200006e578063a126285b1462000120578063c00802761462000152578063c5b6ca5d1462000169578063f7efdc0a1462000190578063f851a44014620001a957600080fd5b80630ca5c50414620000b0578063501335f714620000c95780636408650014620000e85780638f28397014620000ff578063a0eb55701462000116575b600080fd5b620000c7620000c136600462001cae565b620001bd565b005b620000d3620006f7565b60405190151581526020015b60405180910390f35b620000c7620000f936600462001d2b565b62000e63565b620000c76200011036600462001c58565b6200111c565b620000c76200116b565b600054620001399061010090046001600160a01b031681565b6040516001600160a01b039091168152602001620000df565b620000c76200016336600462001d76565b620011a4565b620001806200017a36600462001cf7565b6200123b565b604051620000df92919062001fcb565b6200019a62001372565b604051620000df91906200204d565b60015462000139906001600160a01b031681565b6001546001600160a01b0316331415620002155760405162461bcd60e51b815260206004820152601460248201527318591b5a5b881a5cc81b9bdd08185b1b1bddd95960621b60448201526064015b60405180910390fd5b60005460ff16156200026a5760405162461bcd60e51b815260206004820152601f60248201527f5265656e7472616e637947756172643a207265656e7472616e742063616c6c0060448201526064016200020c565b6000805460ff19166001179055600854421115620002bd5760405162461bcd60e51b815260206004820152600f60248201526e657863656564206275792074696d6560881b60448201526064016200020c565b60098054620002cc90620021ba565b159050620003295760405162461bcd60e51b8152602060048201526024808201527f63757272656e74206163746976697479206e756d626572206d757374206265206044820152631b9d5b1b60e21b60648201526084016200020c565b6001600a5460ff16600281111562000345576200034562002258565b146200039e5760405162461bcd60e51b815260206004820152602160248201527f63757272656e742061637469766974792073746174757320657863657074696f6044820152603760f91b60648201526084016200020c565b60008111620003e55760405162461bcd60e51b8152602060048201526012602482015271616d6f756e7473206174206c65617374203160701b60448201526064016200020c565b6000620003f48260056200214b565b6200040890670de0b6b3a76400006200214b565b6040516370a0823160e01b81523360048201529091508190735ed8bd53b0c3fa3deabd345430b1a3a6a4e8bd7c906370a082319060240160206040518083038186803b1580156200045857600080fd5b505afa1580156200046d573d6000803e3d6000fd5b505050506040513d601f19601f8201168201806040525081019062000493919062001d11565b1015620004da5760405162461bcd60e51b8152602060048201526014602482015273496e73756666696369656e742062616c616e636560601b60448201526064016200020c565b6040516323b872dd60e01b815233600482015230602482015260448101829052600090735ed8bd53b0c3fa3deabd345430b1a3a6a4e8bd7c906323b872dd90606401602060405180830381600087803b1580156200053757600080fd5b505af11580156200054c573d6000803e3d6000fd5b505050506040513d601f19601f8201168201806040525081019062000572919062001c8a565b905080620005b55760405162461bcd60e51b815260206004820152600f60248201526e1d1c985b9cd9995c8819985a5b1959608a1b60448201526064016200020c565b604080516060810182523381526020808201878152928201869052600b805460018101825560009190915282517f0175b7a638427703f0dbe7bb9bbf987a2551717b34e79f33b5b1008d1fa01db9600390920291820180546001600160a01b0319166001600160a01b039092169190911781559351805193949362000664937f0175b7a638427703f0dbe7bb9bbf987a2551717b34e79f33b5b1008d1fa01dba909301929190910190620019a0565b50604082015181600201555050816005600101600082825462000688919062002119565b909155505060078054849190600090620006a490849062002119565b90915550506040517f1160f7e42acc25ce40a0499151736a0092c23685ef042576f568bd2435a11a3690620006df9033908790879062001f95565b60405180910390a150506000805460ff191690555050565b6001546000906001600160a01b03163314620007275760405162461bcd60e51b81526004016200020c9062002022565b60005460ff16156200077c5760405162461bcd60e51b815260206004820152601f60248201527f5265656e7472616e637947756172643a207265656e7472616e742063616c6c0060448201526064016200020c565b6000805460ff191660011790556008544211620007ea5760405162461bcd60e51b815260206004820152602560248201527f546865206c6f74746572792074696d6520686173206e6f74206265656e2072656044820152641858da195960da1b60648201526084016200020c565b600a54610100900460ff1615620008445760405162461bcd60e51b815260206004820152601c60248201527f5072697a65732068617665206265656e2064697374726962757465640000000060448201526064016200020c565b6000600a5460ff16600281111562000860576200086062002258565b1415620008b05760405162461bcd60e51b815260206004820152601860248201527f416374697669747920686173206265656e20636c6f736564000000000000000060448201526064016200020c565b600a805460ff191660021790556000620008c9620015b1565b90506000620008d882620016fa565b8051909150620008f0906009906020840190620019a0565b506000805b600b5481101562000a96576000600560060182815481106200091b576200091b6200226e565b6000918252602091829020604080516060810190915260039092020180546001600160a01b0316825260018101805492939192918401916200095d90620021ba565b80601f01602080910402602001604051908101604052809291908181526020018280546200098b90620021ba565b8015620009dc5780601f10620009b057610100808354040283529160200191620009dc565b820191906000526020600020905b815481529060010190602001808311620009be57829003601f168201915b50505050508152602001600282015481525050905062000a0181602001518562001812565b62000a0d575062000a81565b805160028054600195508490811062000a2a5762000a2a6200226e565b9060005260206000200160006101000a8154816001600160a01b0302191690836001600160a01b0316021790555080604001516003838154811062000a735762000a736200226e565b600091825260209091200155505b8062000a8d81620021f7565b915050620008f5565b50801562000e4e5760405180604001604052806005600401805462000abb90620021ba565b80601f016020809104026020016040519081016040528092919081815260200182805462000ae990620021ba565b801562000b3a5780601f1062000b0e5761010080835404028352916020019162000b3a565b820191906000526020600020905b81548152906001019060200180831162000b1c57829003601f168201915b50505050508152602001600280548060200260200160405190810160405280929190818152602001828054801562000b9c57602002820191906000526020600020905b81546001600160a01b0316815260019091019060200180831162000b7d575b505050919092525050600554600090815260046020908152604090912082518051919262000bd092849290910190620019a0565b50602082810151805162000beb926001850192019062001a2f565b505060065490506000606462000c038360506200214b565b62000c0f919062002134565b905060005b60025481101562000dae5760006002828154811062000c375762000c376200226e565b6000918252602082200154600380546001600160a01b039092169350908490811062000c675762000c676200226e565b60009182526020909120015490506001600160a01b0382161580159062000c8d57508015155b1562000d9657600754600090735ed8bd53b0c3fa3deabd345430b1a3a6a4e8bd7c9063a9059cbb90859062000cc3868a6200214b565b62000ccf919062002134565b6040516001600160e01b031960e085901b1681526001600160a01b0390921660048301526024820152604401602060405180830381600087803b15801562000d1657600080fd5b505af115801562000d2b573d6000803e3d6000fd5b505050506040513d601f19601f8201168201806040525081019062000d51919062001c8a565b90508062000d945760405162461bcd60e51b815260206004820152600f60248201526e1d1c985b9cd9995c8819985a5b1959608a1b60448201526064016200020c565b505b5050808062000da590620021f7565b91505062000c14565b50600a805461ffff191661010017905562000dcc6002600062001a87565b62000dda6003600062001a87565b600260405162000deb919062001e58565b6040519081900381209062000e039060099062001ef1565b6040519081900381206005548252907f9399a616079c875385c43f33683a04ac284a7f9bd863d4186762490c94b54af89060200160405180910390a360019550505050505062000e56565b600093505050505b6000805460ff1916905590565b6001546001600160a01b0316331462000e905760405162461bcd60e51b81526004016200020c9062002022565b600854421162000ee35760405162461bcd60e51b815260206004820181905260248201527f63757272656e74206163746976697479206973206e6f74206f7665722079657460448201526064016200020c565b6000600a5460ff16600281111562000eff5762000eff62002258565b1462000f4e5760405162461bcd60e51b815260206004820181905260248201527f63757272656e742061637469766974792069732077726f6e672073746174757360448201526064016200020c565b600062000f7582604051806040016040528060018152602001607360f81b81525062001812565b1562000f8f5762000f87834262002119565b905062001081565b62000fb482604051806040016040528060018152602001606d60f81b81525062001812565b1562000fd35762000fc783603c6200214b565b62000f87904262002119565b62000ff882604051806040016040528060018152602001600d60fb1b81525062001812565b156200100c5762000fc783610e106200214b565b6200103182604051806040016040528060018152602001601960fa1b81525062001812565b15620010465762000fc783620151806200214b565b60405162461bcd60e51b815260206004820152600f60248201526e1ddc9bdb99c81d1a5b59481d5b9a5d608a1b60448201526064016200020c565b600580549060006200109383620021f7565b90915550506008819055600a805460ff19166001179055620010b86009600062001aaa565b620010c6600b600062001ae9565b60006006819055600755600a805461ff00191690556040517fa3c2d6bd29d5c0fe528651349c26d0e9a184198dc7fe7f90e34d2fe3350a9a3f906200110f9085908590620020fe565b60405180910390a1505050565b6001546001600160a01b03163314620011495760405162461bcd60e51b81526004016200020c9062002022565b600180546001600160a01b0319166001600160a01b0392909216919091179055565b6001546001600160a01b03163314620011985760405162461bcd60e51b81526004016200020c9062002022565b600a805460ff19169055565b6001546001600160a01b03163314620011d15760405162461bcd60e51b81526004016200020c9062002022565b600081604051620011e29062001b0c565b67ffffffffffffffff9091168152602001604051809103906000f08015801562001210573d6000803e3d6000fd5b50600080546001600160a01b0390921661010002610100600160a81b03199092169190911790555050565b6060806000600460008581526020019081526020016000206040518060400160405290816000820180546200127090620021ba565b80601f01602080910402602001604051908101604052809291908181526020018280546200129e90620021ba565b8015620012ef5780601f10620012c357610100808354040283529160200191620012ef565b820191906000526020600020905b815481529060010190602001808311620012d157829003601f168201915b50505050508152602001600182018054806020026020016040519081016040528092919081815260200182805480156200135357602002820191906000526020600020905b81546001600160a01b0316815260019091019060200180831162001334575b5050505050815250509050806000015192508060200151915050915091565b6200137c62001b1a565b6040805161010081018252600580548252600654602083015260075492820192909252600854606082015260098054919291608084019190620013bf90620021ba565b80601f0160208091040260200160405190810160405280929190818152602001828054620013ed90620021ba565b80156200143e5780601f1062001412576101008083540402835291602001916200143e565b820191906000526020600020905b8154815290600101906020018083116200142057829003601f168201915b5050509183525050600582015460209091019060ff16600281111562001468576200146862002258565b60028111156200147c576200147c62002258565b81526005820154610100900460ff161515602080830191909152600683018054604080518285028101850182528281529401939260009084015b82821015620015a457600084815260209081902060408051606081019091526003850290910180546001600160a01b0316825260018101805492939192918401916200150290620021ba565b80601f01602080910402602001604051908101604052809291908181526020018280546200153090620021ba565b8015620015815780601f10620015555761010080835404028352916020019162001581565b820191906000526020600020905b8154815290600101906020018083116200156357829003601f168201915b5050505050815260200160028201548152505081526020019060010190620014b6565b5050505081525050905090565b6000805461010090046001600160a01b0316620016115760405162461bcd60e51b815260206004820152601a60248201527f56524620616464726573732063616e6e6f74206265206e756c6c00000000000060448201526064016200020c565b60008060019054906101000a90046001600160a01b03169050806001600160a01b031663e0c862896040518163ffffffff1660e01b8152600401600060405180830381600087803b1580156200166657600080fd5b505af11580156200167b573d6000803e3d6000fd5b50505050806001600160a01b0316634f18bb076040518163ffffffff1660e01b815260040160206040518083038186803b158015620016b957600080fd5b505afa158015620016ce573d6000803e3d6000fd5b505050506040513d601f19601f82011682018060405250810190620016f4919062001d11565b91505090565b60606127108210620017475760405162461bcd60e51b8152602060048201526015602482015274657863656564206d6178696d756d2072616e646f6d60581b60448201526064016200020c565b6103e782111562001763576200175d8262001882565b92915050565b6063821115620017bb57604051806040016040528060018152602001600360fc1b815250620017928362001882565b604051602001620017a592919062001ea0565b6040516020818303038152906040529050919050565b6009821115620017eb5760405180604001604052806002815260200161030360f41b815250620017928362001882565b6040518060400160405280600381526020016203030360ec1b815250620017928362001882565b6000815183511462001827575060006200175d565b816040516020016200183a919062001ed3565b604051602081830303815290604052805190602001208360405160200162001863919062001ed3565b6040516020818303038152906040528051906020012014905092915050565b606081620018a75750506040805180820190915260018152600360fc1b602082015290565b8160005b8115620018d75780620018be81620021f7565b9150620018cf9050600a8362002134565b9150620018ab565b60008167ffffffffffffffff811115620018f557620018f562002284565b6040519080825280601f01601f19166020018201604052801562001920576020820181803683370190505b5090505b84156200199857620019386001836200216d565b915062001947600a8662002215565b6200195490603062002119565b60f81b8183815181106200196c576200196c6200226e565b60200101906001600160f81b031916908160001a90535062001990600a8662002134565b945062001924565b949350505050565b828054620019ae90620021ba565b90600052602060002090601f016020900481019282620019d2576000855562001a1d565b82601f10620019ed57805160ff191683800117855562001a1d565b8280016001018555821562001a1d579182015b8281111562001a1d57825182559160200191906001019062001a00565b5062001a2b92915062001b73565b5090565b82805482825590600052602060002090810192821562001a1d579160200282015b8281111562001a1d57825182546001600160a01b0319166001600160a01b0390911617825560209092019160019091019062001a50565b508054600082559060005260206000209081019062001aa7919062001b73565b50565b50805462001ab890620021ba565b6000825580601f1062001ac9575050565b601f01602090049060005260206000209081019062001aa7919062001b73565b508054600082556003029060005260206000209081019062001aa7919062001b8a565b610522806200229b83390190565b60405180610100016040528060008152602001600081526020016000815260200160008152602001606081526020016000600281111562001b5f5762001b5f62002258565b815260006020820152606060409091015290565b5b8082111562001a2b576000815560010162001b74565b8082111562001a2b5780546001600160a01b0319168155600062001bb2600183018262001aaa565b506000600282015560030162001b8a565b600082601f83011262001bd557600080fd5b813567ffffffffffffffff8082111562001bf35762001bf362002284565b604051601f8301601f19908116603f0116810190828211818310171562001c1e5762001c1e62002284565b8160405283815286602085880101111562001c3857600080fd5b836020870160208301376000602085830101528094505050505092915050565b60006020828403121562001c6b57600080fd5b81356001600160a01b038116811462001c8357600080fd5b9392505050565b60006020828403121562001c9d57600080fd5b8151801515811462001c8357600080fd5b6000806040838503121562001cc257600080fd5b823567ffffffffffffffff81111562001cda57600080fd5b62001ce88582860162001bc3565b95602094909401359450505050565b60006020828403121562001d0a57600080fd5b5035919050565b60006020828403121562001d2457600080fd5b5051919050565b6000806040838503121562001d3f57600080fd5b82359150602083013567ffffffffffffffff81111562001d5e57600080fd5b62001d6c8582860162001bc3565b9150509250929050565b60006020828403121562001d8957600080fd5b813567ffffffffffffffff8116811462001c8357600080fd5b600082825180855260208086019550808260051b84010181860160005b8481101562001e1d57858303601f19018952815180516001600160a01b031684528481015160608686018190529062001dfb8287018262001e2a565b6040938401519690930195909552509884019892509083019060010162001dbf565b5090979650505050505050565b6000815180845262001e4481602086016020860162002187565b601f01601f19169290920160200192915050565b60008183548391508460005260208060002060005b8381101562001e945781546001600160a01b03168552938201936001918201910162001e6d565b50929695505050505050565b6000835162001eb481846020880162002187565b83519083019062001eca81836020880162002187565b01949350505050565b6000825162001ee781846020870162002187565b9190910192915050565b600080835481600182811c91508083168062001f0e57607f831692505b602080841082141562001f2f57634e487b7160e01b86526022600452602486fd5b81801562001f46576001811462001f585762001f87565b60ff1986168952848901965062001f87565b60008a81526020902060005b8681101562001f7f5781548b82015290850190830162001f64565b505084890196505b509498975050505050505050565b6001600160a01b038416815260606020820181905260009062001fbb9083018562001e2a565b9050826040830152949350505050565b60408152600062001fe0604083018562001e2a565b82810360208481019190915284518083528582019282019060005b8181101562001e1d5784516001600160a01b03168352938301939183019160010162001ffb565b6020808252601190820152703cb7ba9030b932903737ba1030b236b4b760791b604082015260600190565b6020815281516020820152602082015160408201526040820151606082015260608201516080820152600060808301516101008060a08501526200209661012085018362001e2a565b915060a085015160038110620020bc57634e487b7160e01b600052602160045260246000fd5b8060c08601525060c0850151620020d760e086018215159052565b5060e0850151848303601f190182860152620020f4838262001da2565b9695505050505050565b82815260406020820152600062001998604083018462001e2a565b600082198211156200212f576200212f6200222c565b500190565b60008262002146576200214662002242565b500490565b60008160001904831182151516156200216857620021686200222c565b500290565b6000828210156200218257620021826200222c565b500390565b60005b83811015620021a45781810151838201526020016200218a565b83811115620021b4576000848401525b50505050565b600181811c90821680620021cf57607f821691505b60208210811415620021f157634e487b7160e01b600052602260045260246000fd5b50919050565b60006000198214156200220e576200220e6200222c565b5060010190565b60008262002227576200222762002242565b500690565b634e487b7160e01b600052601160045260246000fd5b634e487b7160e01b600052601260045260246000fd5b634e487b7160e01b600052602160045260246000fd5b634e487b7160e01b600052603260045260246000fd5b634e487b7160e01b600052604160045260246000fdfe60a0604052600180546001600160a01b031916736168499c0cffcacd319c818142124b7a15e857ab1790557fd89b2bf150e3b9e13446986e571fb9cab24b13cea0a43ea20a6049a85cc807cc6002556003805466010003000186a06001600160501b031990911617905534801561007557600080fd5b50604051610522380380610522833981016040819052610094916100f6565b6001546001600160601b0319606082901b1660805260008054600680546001600160a01b031916331790556001600160401b03909316600160a01b026001600160e01b03199093166001600160a01b0390921691909117919091179055610126565b60006020828403121561010857600080fd5b81516001600160401b038116811461011f57600080fd5b9392505050565b60805160601c6103d861014a6000396000818160d4015261011601526103d86000f3fe608060405234801561001057600080fd5b50600436106100575760003560e01c80631fe543e31461005c5780634f18bb0714610071578063e0c862891461008d578063e397824014610095578063e89e106a146100c0575b600080fd5b61006f61006a366004610283565b6100c9565b005b61007a60045481565b6040519081526020015b60405180910390f35b61006f610155565b6006546100a8906001600160a01b031681565b6040516001600160a01b039091168152602001610084565b61007a60055481565b336001600160a01b037f000000000000000000000000000000000000000000000000000000000000000016146101475760405163073e64fd60e21b81523360048201526001600160a01b037f000000000000000000000000000000000000000000000000000000000000000016602482015260440160405180910390fd5b610151828261023b565b5050565b6006546001600160a01b0316331461016c57600080fd5b6000546002546003546040516305d3b1d360e41b81526004810192909252600160a01b830467ffffffffffffffff166024830152640100000000810461ffff16604483015263ffffffff808216606484015266010000000000009091041660848201526001600160a01b0390911690635d3b1d309060a401602060405180830381600087803b1580156101fe57600080fd5b505af1158015610212573d6000803e3d6000fd5b505050506040513d601f19601f82011682018060405250810190610236919061026a565b600555565b6127108160008151811061025157610251610376565b60200260200101516102639190610354565b6004555050565b60006020828403121561027c57600080fd5b5051919050565b6000806040838503121561029657600080fd5b8235915060208084013567ffffffffffffffff808211156102b657600080fd5b818601915086601f8301126102ca57600080fd5b8135818111156102dc576102dc61038c565b8060051b604051601f19603f830116810181811085821117156103015761030161038c565b604052828152858101935084860182860187018b101561032057600080fd5b600095505b83861015610343578035855260019590950194938601938601610325565b508096505050505050509250929050565b60008261037157634e487b7160e01b600052601260045260246000fd5b500690565b634e487b7160e01b600052603260045260246000fd5b634e487b7160e01b600052604160045260246000fdfea2646970667358221220999645e661184d1bdf3389d92c19cc9783e5c5ae683d0bab635e9f0df1b6faf164736f6c63430008060033a26469706673582212201060892e99681932c5093b9b9d0b62411050ad7b24ddea03a55d853989112ddd64736f6c63430008060033",
  "linkReferences": {},
  "deployedLinkReferences": {}
}